{
  "contractName": "ACAToken",
  "abi": [
    {
      "constant": true,
      "inputs": [],
      "name": "name",
      "outputs": [
        {
          "name": "",
          "type": "string"
        }
      ],
      "payable": false,
      "stateMutability": "view",
      "type": "function"
    },
    {
      "constant": true,
      "inputs": [],
      "name": "decimals",
      "outputs": [
        {
          "name": "",
          "type": "uint8"
        }
      ],
      "payable": false,
      "stateMutability": "view",
      "type": "function"
    },
    {
      "constant": true,
      "inputs": [],
      "name": "owner",
      "outputs": [
        {
          "name": "",
          "type": "address"
        }
      ],
      "payable": false,
      "stateMutability": "view",
      "type": "function"
    },
    {
      "constant": true,
      "inputs": [],
      "name": "symbol",
      "outputs": [
        {
          "name": "",
          "type": "string"
        }
      ],
      "payable": false,
      "stateMutability": "view",
      "type": "function"
    },
    {
      "constant": true,
      "inputs": [],
      "name": "admin",
      "outputs": [
        {
          "name": "",
          "type": "address"
        }
      ],
      "payable": false,
      "stateMutability": "view",
      "type": "function"
    },
    {
      "constant": true,
      "inputs": [],
      "name": "saleAddress",
      "outputs": [
        {
          "name": "",
          "type": "address"
        }
      ],
      "payable": false,
      "stateMutability": "view",
      "type": "function"
    },
    {
      "inputs": [
        {
          "name": "_totalSupply",
          "type": "uint256"
        },
        {
          "name": "_saleAddress",
          "type": "address"
        },
        {
          "name": "_admin",
          "type": "address"
        }
      ],
      "payable": false,
      "stateMutability": "nonpayable",
      "type": "constructor"
    },
    {
      "anonymous": false,
      "inputs": [
        {
          "indexed": false,
          "name": "owner",
          "type": "address"
        },
        {
          "indexed": false,
          "name": "value",
          "type": "uint256"
        }
      ],
      "name": "Genesis",
      "type": "event"
    },
    {
      "anonymous": false,
      "inputs": [
        {
          "indexed": true,
          "name": "previousOwner",
          "type": "address"
        },
        {
          "indexed": true,
          "name": "newOwner",
          "type": "address"
        }
      ],
      "name": "OwnershipTransferred",
      "type": "event"
    },
    {
      "anonymous": false,
      "inputs": [
        {
          "indexed": true,
          "name": "previousAdmin",
          "type": "address"
        },
        {
          "indexed": true,
          "name": "newAdmin",
          "type": "address"
        }
      ],
      "name": "AdminTransferred",
      "type": "event"
    },
    {
      "anonymous": false,
      "inputs": [
        {
          "indexed": true,
          "name": "burner",
          "type": "address"
        },
        {
          "indexed": false,
          "name": "value",
          "type": "uint256"
        }
      ],
      "name": "Burn",
      "type": "event"
    },
    {
      "anonymous": false,
      "inputs": [
        {
          "indexed": true,
          "name": "addr",
          "type": "address"
        }
      ],
      "name": "LogAddress",
      "type": "event"
    },
    {
      "anonymous": false,
      "inputs": [
        {
          "indexed": false,
          "name": "value",
          "type": "uint256"
        }
      ],
      "name": "LogUint256",
      "type": "event"
    },
    {
      "anonymous": false,
      "inputs": [
        {
          "indexed": true,
          "name": "target",
          "type": "address"
        },
        {
          "indexed": false,
          "name": "value",
          "type": "bool"
        }
      ],
      "name": "TransferLock",
      "type": "event"
    },
    {
      "anonymous": false,
      "inputs": [
        {
          "indexed": true,
          "name": "owner",
          "type": "address"
        },
        {
          "indexed": true,
          "name": "spender",
          "type": "address"
        },
        {
          "indexed": false,
          "name": "value",
          "type": "uint256"
        }
      ],
      "name": "Approval",
      "type": "event"
    },
    {
      "anonymous": false,
      "inputs": [
        {
          "indexed": true,
          "name": "from",
          "type": "address"
        },
        {
          "indexed": true,
          "name": "to",
          "type": "address"
        },
        {
          "indexed": false,
          "name": "value",
          "type": "uint256"
        }
      ],
      "name": "Transfer",
      "type": "event"
    },
    {
      "constant": false,
      "inputs": [
        {
          "name": "newOwner",
          "type": "address"
        }
      ],
      "name": "transferOwnership",
      "outputs": [],
      "payable": false,
      "stateMutability": "nonpayable",
      "type": "function"
    },
    {
      "constant": false,
      "inputs": [
        {
          "name": "_newAdmin",
          "type": "address"
        }
      ],
      "name": "transferAdmin",
      "outputs": [],
      "payable": false,
      "stateMutability": "nonpayable",
      "type": "function"
    },
    {
      "constant": false,
      "inputs": [
        {
          "name": "_transferable",
          "type": "bool"
        }
      ],
      "name": "setTransferable",
      "outputs": [],
      "payable": false,
      "stateMutability": "nonpayable",
      "type": "function"
    },
    {
      "constant": true,
      "inputs": [],
      "name": "isTransferable",
      "outputs": [
        {
          "name": "",
          "type": "bool"
        }
      ],
      "payable": false,
      "stateMutability": "view",
      "type": "function"
    },
    {
      "constant": false,
      "inputs": [],
      "name": "transferLock",
      "outputs": [
        {
          "name": "",
          "type": "bool"
        }
      ],
      "payable": false,
      "stateMutability": "nonpayable",
      "type": "function"
    },
    {
      "constant": false,
      "inputs": [
        {
          "name": "_target",
          "type": "address"
        },
        {
          "name": "_value",
          "type": "bool"
        }
      ],
      "name": "manageTransferLock",
      "outputs": [
        {
          "name": "",
          "type": "bool"
        }
      ],
      "payable": false,
      "stateMutability": "nonpayable",
      "type": "function"
    },
    {
      "constant": true,
      "inputs": [
        {
          "name": "_target",
          "type": "address"
        }
      ],
      "name": "transferAllowed",
      "outputs": [
        {
          "name": "",
          "type": "bool"
        }
      ],
      "payable": false,
      "stateMutability": "view",
      "type": "function"
    },
    {
      "constant": true,
      "inputs": [],
      "name": "totalSupply",
      "outputs": [
        {
          "name": "",
          "type": "uint256"
        }
      ],
      "payable": false,
      "stateMutability": "view",
      "type": "function"
    },
    {
      "constant": false,
      "inputs": [
        {
          "name": "_to",
          "type": "address"
        },
        {
          "name": "_value",
          "type": "uint256"
        }
      ],
      "name": "transfer",
      "outputs": [
        {
          "name": "",
          "type": "bool"
        }
      ],
      "payable": false,
      "stateMutability": "nonpayable",
      "type": "function"
    },
    {
      "constant": true,
      "inputs": [
        {
          "name": "_owner",
          "type": "address"
        }
      ],
      "name": "balanceOf",
      "outputs": [
        {
          "name": "balance",
          "type": "uint256"
        }
      ],
      "payable": false,
      "stateMutability": "view",
      "type": "function"
    },
    {
      "constant": true,
      "inputs": [],
      "name": "balanceOfOwner",
      "outputs": [
        {
          "name": "balance",
          "type": "uint256"
        }
      ],
      "payable": false,
      "stateMutability": "view",
      "type": "function"
    },
    {
      "constant": false,
      "inputs": [
        {
          "name": "_from",
          "type": "address"
        },
        {
          "name": "_to",
          "type": "address"
        },
        {
          "name": "_value",
          "type": "uint256"
        }
      ],
      "name": "transferFrom",
      "outputs": [
        {
          "name": "",
          "type": "bool"
        }
      ],
      "payable": false,
      "stateMutability": "nonpayable",
      "type": "function"
    },
    {
      "constant": false,
      "inputs": [
        {
          "name": "_spender",
          "type": "address"
        },
        {
          "name": "_value",
          "type": "uint256"
        }
      ],
      "name": "approve",
      "outputs": [
        {
          "name": "",
          "type": "bool"
        }
      ],
      "payable": false,
      "stateMutability": "nonpayable",
      "type": "function"
    },
    {
      "constant": true,
      "inputs": [
        {
          "name": "_owner",
          "type": "address"
        },
        {
          "name": "_spender",
          "type": "address"
        }
      ],
      "name": "allowance",
      "outputs": [
        {
          "name": "",
          "type": "uint256"
        }
      ],
      "payable": false,
      "stateMutability": "view",
      "type": "function"
    },
    {
      "constant": false,
      "inputs": [
        {
          "name": "_spender",
          "type": "address"
        },
        {
          "name": "_addedValue",
          "type": "uint256"
        }
      ],
      "name": "increaseApproval",
      "outputs": [
        {
          "name": "",
          "type": "bool"
        }
      ],
      "payable": false,
      "stateMutability": "nonpayable",
      "type": "function"
    },
    {
      "constant": false,
      "inputs": [
        {
          "name": "_spender",
          "type": "address"
        },
        {
          "name": "_subtractedValue",
          "type": "uint256"
        }
      ],
      "name": "decreaseApproval",
      "outputs": [
        {
          "name": "",
          "type": "bool"
        }
      ],
      "payable": false,
      "stateMutability": "nonpayable",
      "type": "function"
    },
    {
      "constant": false,
      "inputs": [
        {
          "name": "_value",
          "type": "uint256"
        }
      ],
      "name": "burn",
      "outputs": [],
      "payable": false,
      "stateMutability": "nonpayable",
      "type": "function"
    },
    {
      "constant": false,
      "inputs": [
        {
          "name": "_token",
          "type": "address"
        },
        {
          "name": "_amount",
          "type": "uint256"
        }
      ],
      "name": "emergencyERC20Drain",
      "outputs": [],
      "payable": false,
      "stateMutability": "nonpayable",
      "type": "function"
    }
  ],
  "bytecode": "0x60c0604052601160808190527f414341204e6574776f726b20546f6b656e00000000000000000000000000000060a090815262000040916003919062000353565b506040805180820190915260038082527f41434100000000000000000000000000000000000000000000000000000000006020909201918252620000879160049162000353565b506005805460ff19908116601217909155600980549091169055348015620000ae57600080fd5b506040516060806200160a83398101604090815281516020830151919092015160008311620000dc57600080fd5b60008054600160a060020a03191633179055600160a060020a03821615156200010457600080fd5b600160a060020a0382163014156200011b57600080fd5b600054600160a060020a03838116911614156200013757600080fd5b600160a060020a03811615156200014d57600080fd5b600160a060020a0381163014156200016457600080fd5b600054600160a060020a03828116911614156200018057600080fd5b600160a060020a0381811690831614156200019a57600080fd5b60018054600160a060020a03808416600160a060020a0319928316179092556002805485841692169190911781556006859055600080548316815260086020526040902085905554620001f89116846401000000006200024d810204565b5060005460065460408051600160a060020a039093168352602083019190915280517fba2f6409ffd24dd4df8e06be958ed8c1706b128913be6e417989c74969b0b55a9281900390910190a1505050620003f8565b60003383600160a060020a03811615156200026757600080fd5b600160a060020a0381163014156200027e57600080fd5b600054600160a060020a03838116911614801590620002ab5750600154600160a060020a03838116911614155b15620002ea5760095460ff161515620002c357600080fd5b600160a060020a0382166000908152600a602052604090205460ff1615620002ea57600080fd5b336000818152600760209081526040808320600160a060020a038a1680855290835292819020889055805188815290519293927f8c5be1e5ebec7d5bd14f71427d1e84f3dd0314c0f7b2291e5b200ac8c7c3b925929181900390910190a3506001949350505050565b828054600181600116156101000203166002900490600052602060002090601f016020900481019282601f106200039657805160ff1916838001178555620003c6565b82800160010185558215620003c6579182015b82811115620003c6578251825591602001919060010190620003a9565b50620003d4929150620003d8565b5090565b620003f591905b80821115620003d45760008155600101620003df565b90565b61120280620004086000396000f30060806040526004361061013d5763ffffffff7c010000000000000000000000000000000000000000000000000000000060003504166306fdde038114610142578063095ea7b3146101cc578063151eeb551461020457806318160ddd146102255780632121dc751461024c57806323b872dd14610261578063313ce5671461028b57806342966c68146102b65780634975d202146102d057806366188463146102e557806370a082311461030957806373124ced1461032a57806375829def1461033f5780638da5cb5b146103605780639041f9601461039157806395d89b41146103b75780639cd23707146103cc578063a9059cbb146103e6578063d73dd6231461040a578063db0e16f11461042e578063dd62ed3e14610452578063f2fde38b14610479578063f851a4401461049a578063fffe088d146104af575b600080fd5b34801561014e57600080fd5b506101576104c4565b6040805160208082528351818301528351919283929083019185019080838360005b83811015610191578181015183820152602001610179565b50505050905090810190601f1680156101be5780820380516001836020036101000a031916815260200191505b509250505060405180910390f35b3480156101d857600080fd5b506101f0600160a060020a0360043516602435610552565b604080519115158252519081900360200190f35b34801561021057600080fd5b506101f0600160a060020a0360043516610652565b34801561023157600080fd5b5061023a610686565b60408051918252519081900360200190f35b34801561025857600080fd5b506101f061068c565b34801561026d57600080fd5b506101f0600160a060020a0360043581169060243516604435610695565b34801561029757600080fd5b506102a0610890565b6040805160ff9092168252519081900360200190f35b3480156102c257600080fd5b506102ce600435610899565b005b3480156102dc57600080fd5b5061023a610948565b3480156102f157600080fd5b506101f0600160a060020a0360043516602435610964565b34801561031557600080fd5b5061023a600160a060020a0360043516610af0565b34801561033657600080fd5b506101f0610b0b565b34801561034b57600080fd5b506102ce600160a060020a0360043516610b66565b34801561036c57600080fd5b50610375610c20565b60408051600160a060020a039092168252519081900360200190f35b34801561039d57600080fd5b506101f0600160a060020a03600435166024351515610c2f565b3480156103c357600080fd5b50610157610cc3565b3480156103d857600080fd5b506102ce6004351515610d1e565b3480156103f257600080fd5b506101f0600160a060020a0360043516602435610d5f565b34801561041657600080fd5b506101f0600160a060020a0360043516602435610ec4565b34801561043a57600080fd5b506102ce600160a060020a0360043516602435610ff6565b34801561045e57600080fd5b5061023a600160a060020a03600435811690602435166110ad565b34801561048557600080fd5b506102ce600160a060020a03600435166110d8565b3480156104a657600080fd5b50610375611190565b3480156104bb57600080fd5b5061037561119f565b6003805460408051602060026001851615610100026000190190941693909304601f8101849004840282018401909252818152929183018282801561054a5780601f1061051f5761010080835404028352916020019161054a565b820191906000526020600020905b81548152906001019060200180831161052d57829003601f168201915b505050505081565b60003383600160a060020a038116151561056b57600080fd5b600160a060020a03811630141561058157600080fd5b600054600160a060020a038381169116148015906105ad5750600154600160a060020a03838116911614155b156105e95760095460ff1615156105c357600080fd5b600160a060020a0382166000908152600a602052604090205460ff16156105e957600080fd5b336000818152600760209081526040808320600160a060020a038a1680855290835292819020889055805188815290519293927f8c5be1e5ebec7d5bd14f71427d1e84f3dd0314c0f7b2291e5b200ac8c7c3b925929181900390910190a3506001949350505050565b60095460009060ff1680156106805750600160a060020a0382166000908152600a602052604090205460ff16155b92915050565b60065490565b60095460ff1690565b60008383600160a060020a03811615156106ae57600080fd5b600160a060020a0381163014156106c457600080fd5b600054600160a060020a038381169116148015906106f05750600154600160a060020a03838116911614155b1561072c5760095460ff16151561070657600080fd5b600160a060020a0382166000908152600a602052604090205460ff161561072c57600080fd5b600160a060020a03861660009081526008602052604090205484111561075157600080fd5b600160a060020a038616600090815260076020908152604080832033845290915290205484111561078157600080fd5b600160a060020a0386166000908152600860205260409020546107aa908563ffffffff6111ae16565b600160a060020a0380881660009081526008602052604080822093909355908716815220546107df908563ffffffff6111c016565b600160a060020a038087166000908152600860209081526040808320949094559189168152600782528281203382529091522054610823908563ffffffff6111ae16565b600160a060020a03808816600081815260076020908152604080832033845282529182902094909455805188815290519289169391927fddf252ad1be2c89b69c2b068fc378daa952ba7f163c4a11628f55a4df523b3ef929181900390910190a350600195945050505050565b60055460ff1681565b336000908152600860205260408120548211156108b557600080fd5b50336000818152600860205260409020546108d6908363ffffffff6111ae16565b600160a060020a038216600090815260086020526040902055600654610902908363ffffffff6111ae16565b600655604080518381529051600160a060020a038316917fcc16f5dbb4873280815c1ee09dbd06736cffcc184412cf7a71a0fdb75d397ca5919081900360200190a25050565b60008054600160a060020a031681526008602052604090205490565b6000803384600160a060020a038116151561097e57600080fd5b600160a060020a03811630141561099457600080fd5b600054600160a060020a038381169116148015906109c05750600154600160a060020a03838116911614155b156109fc5760095460ff1615156109d657600080fd5b600160a060020a0382166000908152600a602052604090205460ff16156109fc57600080fd5b336000908152600760209081526040808320600160a060020a038a168452909152902054925082851115610a5357336000908152600760209081526040808320600160a060020a038a168452909152812055610a88565b610a63838663ffffffff6111ae16565b336000908152600760209081526040808320600160a060020a038b1684529091529020555b336000818152600760209081526040808320600160a060020a038b168085529083529281902054815190815290519293927f8c5be1e5ebec7d5bd14f71427d1e84f3dd0314c0f7b2291e5b200ac8c7c3b925929181900390910190a350600195945050505050565b600160a060020a031660009081526008602052604090205490565b336000818152600a60209081526040808320805460ff19166001908117909155815190815290519293927fe69fbfe81719762980f50605418dd73c723d37ea52572e91c2ae73c4c6268eaa929181900390910190a250600190565b600054600160a060020a03163314610b7d57600080fd5b600160a060020a0381161515610b9257600080fd5b600160a060020a038116301415610ba857600080fd5b600054600160a060020a0382811691161415610bc357600080fd5b6001805473ffffffffffffffffffffffffffffffffffffffff1916600160a060020a0383811691821792839055604051919216907ff8ccb027dfcd135e000e9d45e6cc2d662578a8825d4c45b5e32e0adf67e79ec690600090a350565b600054600160a060020a031681565b60008054600160a060020a0316331480610c535750600154600160a060020a031633145b1515610c5e57600080fd5b600160a060020a0383166000818152600a6020908152604091829020805460ff1916861515908117909155825190815291517fe69fbfe81719762980f50605418dd73c723d37ea52572e91c2ae73c4c6268eaa9281900390910190a250600192915050565b6004805460408051602060026001851615610100026000190190941693909304601f8101849004840282018401909252818152929183018282801561054a5780601f1061051f5761010080835404028352916020019161054a565b600054600160a060020a0316331480610d415750600154600160a060020a031633145b1515610d4c57600080fd5b6009805460ff1916911515919091179055565b60003383600160a060020a0381161515610d7857600080fd5b600160a060020a038116301415610d8e57600080fd5b600054600160a060020a03838116911614801590610dba5750600154600160a060020a03838116911614155b15610df65760095460ff161515610dd057600080fd5b600160a060020a0382166000908152600a602052604090205460ff1615610df657600080fd5b33600090815260086020526040902054841115610e1257600080fd5b33600090815260086020526040902054610e32908563ffffffff6111ae16565b3360009081526008602052604080822092909255600160a060020a03871681522054610e64908563ffffffff6111c016565b600160a060020a0386166000818152600860209081526040918290209390935580518781529051919233927fddf252ad1be2c89b69c2b068fc378daa952ba7f163c4a11628f55a4df523b3ef9281900390910190a3506001949350505050565b60003383600160a060020a0381161515610edd57600080fd5b600160a060020a038116301415610ef357600080fd5b600054600160a060020a03838116911614801590610f1f5750600154600160a060020a03838116911614155b15610f5b5760095460ff161515610f3557600080fd5b600160a060020a0382166000908152600a602052604090205460ff1615610f5b57600080fd5b336000908152600760209081526040808320600160a060020a0389168452909152902054610f8f908563ffffffff6111c016565b336000818152600760209081526040808320600160a060020a038b168085529083529281902085905580519485525191937f8c5be1e5ebec7d5bd14f71427d1e84f3dd0314c0f7b2291e5b200ac8c7c3b925929081900390910190a3506001949350505050565b600054600160a060020a0316331461100d57600080fd5b60008054604080517fa9059cbb000000000000000000000000000000000000000000000000000000008152600160a060020a0392831660048201526024810185905290519185169263a9059cbb926044808401936020939083900390910190829087803b15801561107d57600080fd5b505af1158015611091573d6000803e3d6000fd5b505050506040513d60208110156110a757600080fd5b50505050565b600160a060020a03918216600090815260076020908152604080832093909416825291909152205490565b600054600160a060020a031633146110ef57600080fd5b600160a060020a038116151561110457600080fd5b600160a060020a03811630141561111a57600080fd5b600154600160a060020a038281169116141561113557600080fd5b6000805473ffffffffffffffffffffffffffffffffffffffff1916600160a060020a0383811691821780845560405192939116917f8be0079c531659141344cd1fd0a4f28419497f9722a3daafe3b4186f6b6457e09190a350565b600154600160a060020a031681565b600254600160a060020a031681565b6000828211156111ba57fe5b50900390565b6000828201838110156111cf57fe5b93925050505600a165627a7a7230582005b971aae9763b322dbfe1eaae2c25eba1a981182020ae953e0fff26e2b5bd740029",
  "source": "pragma solidity ^0.4.19;\n\nimport \"./SafeMath.sol\";\nimport \"./ERC20.sol\";\nimport \"./ERC20Basic.sol\";\n\ncontract ACAToken is ERC20 {\n    using SafeMath for uint256;\n\n    address public owner;\n    address public admin;\n    address public saleAddress;\n\n    string public name = \"ACA Network Token\";\n    string public symbol = \"ACA\";\n    uint8 public decimals = 18;\n\n    uint256 totalSupply_;\n    mapping (address => mapping (address => uint256)) internal allowed;\n    mapping (address => uint256) balances;\n\n    bool transferable = false;\n    mapping (address => bool) internal transferLocked;\n\n    event Genesis(address owner, uint256 value);\n    event OwnershipTransferred(address indexed previousOwner, address indexed newOwner);\n    event AdminTransferred(address indexed previousAdmin, address indexed newAdmin);\n    event Burn(address indexed burner, uint256 value);\n    event LogAddress(address indexed addr);\n    event LogUint256(uint256 value);\n    event TransferLock(address indexed target, bool value);\n\n    // modifiers\n    modifier onlyOwner() {\n        require(msg.sender == owner);\n        _;\n    }\n\n    modifier onlyAdmin() {\n        require(msg.sender == owner || msg.sender == admin);\n        _;\n    }\n\n    modifier canTransfer(address _from, address _to) {\n        require(_to != address(0x0));\n        require(_to != address(this));\n\n        if ( _from != owner && _from != admin ) {\n            require(transferable);\n            require (!transferLocked[_from]);\n        }\n        _;\n    }\n\n    // constructor\n    function ACAToken(uint256 _totalSupply, address _saleAddress, address _admin) public {\n        require(_totalSupply > 0);\n        owner = msg.sender;\n        require(_saleAddress != address(0x0));\n        require(_saleAddress != address(this));\n        require(_saleAddress != owner);\n\n        require(_admin != address(0x0));\n        require(_admin != address(this));\n        require(_admin != owner);\n\n        require(_admin != _saleAddress);\n\n        admin = _admin;\n        saleAddress = _saleAddress;\n\n        totalSupply_ = _totalSupply;\n\n        balances[owner] = totalSupply_;\n        approve(saleAddress, totalSupply_);\n\n        emit Genesis(owner, totalSupply_);\n    }\n\n    // permission related\n    function transferOwnership(address newOwner) public onlyOwner {\n        require(newOwner != address(0));\n        require(newOwner != address(this));\n        require(newOwner != admin);\n\n        owner = newOwner;\n        emit OwnershipTransferred(owner, newOwner);\n    }\n\n    function transferAdmin(address _newAdmin) public onlyOwner {\n        require(_newAdmin != address(0));\n        require(_newAdmin != address(this));\n        require(_newAdmin != owner);\n\n        admin = _newAdmin;\n        emit AdminTransferred(admin, _newAdmin);\n    }\n\n    function setTransferable(bool _transferable) public onlyAdmin {\n        transferable = _transferable;\n    }\n\n    function isTransferable() public view returns (bool) {\n        return transferable;\n    }\n\n    function transferLock() public returns (bool) {\n        transferLocked[msg.sender] = true;\n        emit TransferLock(msg.sender, true);\n        return true;\n    }\n\n    function manageTransferLock(address _target, bool _value) public onlyAdmin returns (bool) {\n        transferLocked[_target] = _value;\n        emit TransferLock(_target, _value);\n        return true;\n    }\n\n    function transferAllowed(address _target) public view returns (bool) {\n        return (transferable && transferLocked[_target] == false);\n    }\n\n    // token related\n    function totalSupply() public view returns (uint256) {\n        return totalSupply_;\n    }\n\n    function transfer(address _to, uint256 _value) canTransfer(msg.sender, _to) public returns (bool) {\n        require(_value <= balances[msg.sender]);\n\n        // SafeMath.sub will throw if there is not enough balance.\n        balances[msg.sender] = balances[msg.sender].sub(_value);\n        balances[_to] = balances[_to].add(_value);\n        emit Transfer(msg.sender, _to, _value);\n        return true;\n    }\n\n    function balanceOf(address _owner) public view returns (uint256 balance) {\n        return balances[_owner];\n    }\n\n    function balanceOfOwner() public view returns (uint256 balance) {\n        return balances[owner];\n    }\n\n    function transferFrom(address _from, address _to, uint256 _value) public canTransfer(_from, _to) returns (bool) {\n        require(_value <= balances[_from]);\n        require(_value <= allowed[_from][msg.sender]);\n\n        balances[_from] = balances[_from].sub(_value);\n        balances[_to] = balances[_to].add(_value);\n        allowed[_from][msg.sender] = allowed[_from][msg.sender].sub(_value);\n        emit Transfer(_from, _to, _value);\n        return true;\n    }\n\n    function approve(address _spender, uint256 _value) public canTransfer(msg.sender, _spender) returns (bool) {\n        allowed[msg.sender][_spender] = _value;\n        emit Approval(msg.sender, _spender, _value);\n        return true;\n    }\n\n    function allowance(address _owner, address _spender) public view returns (uint256) {\n        return allowed[_owner][_spender];\n    }\n\n    function increaseApproval(address _spender, uint _addedValue) public canTransfer(msg.sender, _spender) returns (bool) {\n        allowed[msg.sender][_spender] = allowed[msg.sender][_spender].add(_addedValue);\n        emit Approval(msg.sender, _spender, allowed[msg.sender][_spender]);\n        return true;\n    }\n\n    function decreaseApproval(address _spender, uint _subtractedValue) public canTransfer(msg.sender, _spender) returns (bool) {\n        uint oldValue = allowed[msg.sender][_spender];\n        if (_subtractedValue > oldValue) {\n            allowed[msg.sender][_spender] = 0;\n        } else {\n            allowed[msg.sender][_spender] = oldValue.sub(_subtractedValue);\n        }\n        emit Approval(msg.sender, _spender, allowed[msg.sender][_spender]);\n        return true;\n    }\n\n    function burn(uint256 _value) public {\n        require(_value <= balances[msg.sender]);\n        // no need to require value <= totalSupply, since that would imply the\n        // sender's balance is greater than the totalSupply, which *should* be an assertion failure\n\n        address burner = msg.sender;\n        balances[burner] = balances[burner].sub(_value);\n        totalSupply_ = totalSupply_.sub(_value);\n        emit Burn(burner, _value);\n    }\n\n    function emergencyERC20Drain(ERC20 _token, uint256 _amount) public onlyOwner {\n        _token.transfer(owner, _amount);\n    }\n}",
  "sourcePath": "/home/abhi_21094/Projects/aca-audit/contracts/ACAToken.sol",
  "compiler": {
    "name": "solc",
    "version": "0.4.24+commit.e67f0147.Emscripten.clang"
  },
  "schemaVersion": "2.0.1",
  "updatedAt": "2019-02-12T07:27:28.584Z"
}