{
  "contractName": "ACATokenSale",
  "abi": [
    {
      "constant": true,
      "inputs": [],
      "name": "whitelistBonusSent",
      "outputs": [
        {
          "name": "",
          "type": "uint256"
        }
      ],
      "payable": false,
      "stateMutability": "view",
      "type": "function"
    },
    {
      "constant": true,
      "inputs": [],
      "name": "whitelistBonusClosingTime",
      "outputs": [
        {
          "name": "",
          "type": "uint256"
        }
      ],
      "payable": false,
      "stateMutability": "view",
      "type": "function"
    },
    {
      "constant": true,
      "inputs": [],
      "name": "referralSent",
      "outputs": [
        {
          "name": "",
          "type": "uint256"
        }
      ],
      "payable": false,
      "stateMutability": "view",
      "type": "function"
    },
    {
      "constant": true,
      "inputs": [],
      "name": "weiRaised",
      "outputs": [
        {
          "name": "",
          "type": "uint256"
        }
      ],
      "payable": false,
      "stateMutability": "view",
      "type": "function"
    },
    {
      "constant": true,
      "inputs": [],
      "name": "wallet",
      "outputs": [
        {
          "name": "",
          "type": "address"
        }
      ],
      "payable": false,
      "stateMutability": "view",
      "type": "function"
    },
    {
      "constant": true,
      "inputs": [],
      "name": "whitelistBonusAmount",
      "outputs": [
        {
          "name": "",
          "type": "uint256"
        }
      ],
      "payable": false,
      "stateMutability": "view",
      "type": "function"
    },
    {
      "constant": true,
      "inputs": [],
      "name": "currentStage",
      "outputs": [
        {
          "name": "",
          "type": "uint256"
        }
      ],
      "payable": false,
      "stateMutability": "view",
      "type": "function"
    },
    {
      "constant": true,
      "inputs": [],
      "name": "whitelistBonusRate",
      "outputs": [
        {
          "name": "",
          "type": "uint256"
        }
      ],
      "payable": false,
      "stateMutability": "view",
      "type": "function"
    },
    {
      "constant": true,
      "inputs": [],
      "name": "referralAmount",
      "outputs": [
        {
          "name": "",
          "type": "uint256"
        }
      ],
      "payable": false,
      "stateMutability": "view",
      "type": "function"
    },
    {
      "constant": true,
      "inputs": [],
      "name": "isClaimable",
      "outputs": [
        {
          "name": "",
          "type": "bool"
        }
      ],
      "payable": false,
      "stateMutability": "view",
      "type": "function"
    },
    {
      "constant": true,
      "inputs": [
        {
          "name": "",
          "type": "uint256"
        }
      ],
      "name": "stages",
      "outputs": [
        {
          "name": "opening",
          "type": "uint256"
        },
        {
          "name": "closing",
          "type": "uint256"
        },
        {
          "name": "capacity",
          "type": "uint256"
        },
        {
          "name": "minimumWei",
          "type": "uint256"
        },
        {
          "name": "maximumWei",
          "type": "uint256"
        },
        {
          "name": "rate",
          "type": "uint256"
        },
        {
          "name": "sold",
          "type": "uint256"
        }
      ],
      "payable": false,
      "stateMutability": "view",
      "type": "function"
    },
    {
      "constant": true,
      "inputs": [],
      "name": "isFinalized",
      "outputs": [
        {
          "name": "",
          "type": "bool"
        }
      ],
      "payable": false,
      "stateMutability": "view",
      "type": "function"
    },
    {
      "constant": true,
      "inputs": [],
      "name": "owner",
      "outputs": [
        {
          "name": "",
          "type": "address"
        }
      ],
      "payable": false,
      "stateMutability": "view",
      "type": "function"
    },
    {
      "constant": true,
      "inputs": [],
      "name": "softCap",
      "outputs": [
        {
          "name": "",
          "type": "uint256"
        }
      ],
      "payable": false,
      "stateMutability": "view",
      "type": "function"
    },
    {
      "constant": true,
      "inputs": [],
      "name": "bountySent",
      "outputs": [
        {
          "name": "",
          "type": "uint256"
        }
      ],
      "payable": false,
      "stateMutability": "view",
      "type": "function"
    },
    {
      "constant": true,
      "inputs": [],
      "name": "tokenSaleEnabled",
      "outputs": [
        {
          "name": "",
          "type": "bool"
        }
      ],
      "payable": false,
      "stateMutability": "view",
      "type": "function"
    },
    {
      "constant": true,
      "inputs": [
        {
          "name": "",
          "type": "address"
        }
      ],
      "name": "whitelist",
      "outputs": [
        {
          "name": "",
          "type": "bool"
        }
      ],
      "payable": false,
      "stateMutability": "view",
      "type": "function"
    },
    {
      "constant": true,
      "inputs": [
        {
          "name": "",
          "type": "address"
        }
      ],
      "name": "referrals",
      "outputs": [
        {
          "name": "",
          "type": "address"
        }
      ],
      "payable": false,
      "stateMutability": "view",
      "type": "function"
    },
    {
      "constant": true,
      "inputs": [
        {
          "name": "",
          "type": "address"
        }
      ],
      "name": "sales",
      "outputs": [
        {
          "name": "",
          "type": "uint256"
        }
      ],
      "payable": false,
      "stateMutability": "view",
      "type": "function"
    },
    {
      "constant": true,
      "inputs": [],
      "name": "bountyAmount",
      "outputs": [
        {
          "name": "",
          "type": "uint256"
        }
      ],
      "payable": false,
      "stateMutability": "view",
      "type": "function"
    },
    {
      "constant": true,
      "inputs": [
        {
          "name": "",
          "type": "address"
        }
      ],
      "name": "bounties",
      "outputs": [
        {
          "name": "",
          "type": "uint256"
        }
      ],
      "payable": false,
      "stateMutability": "view",
      "type": "function"
    },
    {
      "constant": true,
      "inputs": [],
      "name": "referralDone",
      "outputs": [
        {
          "name": "",
          "type": "bool"
        }
      ],
      "payable": false,
      "stateMutability": "view",
      "type": "function"
    },
    {
      "constant": true,
      "inputs": [
        {
          "name": "",
          "type": "address"
        }
      ],
      "name": "kyclist",
      "outputs": [
        {
          "name": "",
          "type": "bool"
        }
      ],
      "payable": false,
      "stateMutability": "view",
      "type": "function"
    },
    {
      "constant": true,
      "inputs": [],
      "name": "referralRateInviter",
      "outputs": [
        {
          "name": "",
          "type": "uint256"
        }
      ],
      "payable": false,
      "stateMutability": "view",
      "type": "function"
    },
    {
      "constant": true,
      "inputs": [],
      "name": "referralRateInvitee",
      "outputs": [
        {
          "name": "",
          "type": "uint256"
        }
      ],
      "payable": false,
      "stateMutability": "view",
      "type": "function"
    },
    {
      "constant": true,
      "inputs": [
        {
          "name": "",
          "type": "address"
        }
      ],
      "name": "whitelistBonus",
      "outputs": [
        {
          "name": "",
          "type": "bool"
        }
      ],
      "payable": false,
      "stateMutability": "view",
      "type": "function"
    },
    {
      "constant": true,
      "inputs": [],
      "name": "admin",
      "outputs": [
        {
          "name": "",
          "type": "address"
        }
      ],
      "payable": false,
      "stateMutability": "view",
      "type": "function"
    },
    {
      "constant": true,
      "inputs": [],
      "name": "hardCap",
      "outputs": [
        {
          "name": "",
          "type": "uint256"
        }
      ],
      "payable": false,
      "stateMutability": "view",
      "type": "function"
    },
    {
      "constant": true,
      "inputs": [],
      "name": "vault",
      "outputs": [
        {
          "name": "",
          "type": "address"
        }
      ],
      "payable": false,
      "stateMutability": "view",
      "type": "function"
    },
    {
      "constant": true,
      "inputs": [],
      "name": "token",
      "outputs": [
        {
          "name": "",
          "type": "address"
        }
      ],
      "payable": false,
      "stateMutability": "view",
      "type": "function"
    },
    {
      "inputs": [
        {
          "name": "_wallet",
          "type": "address"
        },
        {
          "name": "_admin",
          "type": "address"
        },
        {
          "name": "_totalSupply",
          "type": "uint256"
        },
        {
          "name": "_softCap",
          "type": "uint256"
        },
        {
          "name": "_hardCap",
          "type": "uint256"
        }
      ],
      "payable": false,
      "stateMutability": "nonpayable",
      "type": "constructor"
    },
    {
      "payable": true,
      "stateMutability": "payable",
      "type": "fallback"
    },
    {
      "anonymous": false,
      "inputs": [
        {
          "indexed": true,
          "name": "previousOwner",
          "type": "address"
        },
        {
          "indexed": true,
          "name": "newOwner",
          "type": "address"
        }
      ],
      "name": "OwnershipTransferred",
      "type": "event"
    },
    {
      "anonymous": false,
      "inputs": [
        {
          "indexed": true,
          "name": "previousAdmin",
          "type": "address"
        },
        {
          "indexed": true,
          "name": "newAdmin",
          "type": "address"
        }
      ],
      "name": "AdminTransferred",
      "type": "event"
    },
    {
      "anonymous": false,
      "inputs": [
        {
          "indexed": true,
          "name": "wallet",
          "type": "address"
        },
        {
          "indexed": false,
          "name": "totalSupply",
          "type": "uint256"
        }
      ],
      "name": "TokenSaleCreated",
      "type": "event"
    },
    {
      "anonymous": false,
      "inputs": [
        {
          "indexed": false,
          "name": "openingTime",
          "type": "uint256"
        },
        {
          "indexed": false,
          "name": "closingTime",
          "type": "uint256"
        },
        {
          "indexed": false,
          "name": "capacity",
          "type": "uint256"
        },
        {
          "indexed": false,
          "name": "minimumWei",
          "type": "uint256"
        },
        {
          "indexed": false,
          "name": "maximumWei",
          "type": "uint256"
        },
        {
          "indexed": false,
          "name": "rate",
          "type": "uint256"
        }
      ],
      "name": "StageAdded",
      "type": "event"
    },
    {
      "anonymous": false,
      "inputs": [],
      "name": "TokenSaleEnabled",
      "type": "event"
    },
    {
      "anonymous": false,
      "inputs": [
        {
          "indexed": true,
          "name": "beneficiary",
          "type": "address"
        },
        {
          "indexed": false,
          "name": "flag",
          "type": "bool"
        }
      ],
      "name": "WhitelistUpdated",
      "type": "event"
    },
    {
      "anonymous": false,
      "inputs": [
        {
          "indexed": true,
          "name": "beneficiary",
          "type": "address"
        },
        {
          "indexed": false,
          "name": "flag",
          "type": "bool"
        }
      ],
      "name": "VerificationUpdated",
      "type": "event"
    },
    {
      "anonymous": false,
      "inputs": [
        {
          "indexed": false,
          "name": "beneficiary",
          "type": "address[]"
        },
        {
          "indexed": false,
          "name": "flag",
          "type": "bool"
        }
      ],
      "name": "BulkWhitelistUpdated",
      "type": "event"
    },
    {
      "anonymous": false,
      "inputs": [
        {
          "indexed": false,
          "name": "beneficiary",
          "type": "address[]"
        },
        {
          "indexed": false,
          "name": "flag",
          "type": "bool"
        }
      ],
      "name": "BulkVerificationUpdated",
      "type": "event"
    },
    {
      "anonymous": false,
      "inputs": [
        {
          "indexed": true,
          "name": "purchaser",
          "type": "address"
        },
        {
          "indexed": true,
          "name": "beneficiary",
          "type": "address"
        },
        {
          "indexed": false,
          "name": "value",
          "type": "uint256"
        },
        {
          "indexed": false,
          "name": "amount",
          "type": "uint256"
        }
      ],
      "name": "TokenPurchase",
      "type": "event"
    },
    {
      "anonymous": false,
      "inputs": [
        {
          "indexed": true,
          "name": "beneficiary",
          "type": "address"
        },
        {
          "indexed": false,
          "name": "amount",
          "type": "uint256"
        }
      ],
      "name": "TokenClaimed",
      "type": "event"
    },
    {
      "anonymous": false,
      "inputs": [],
      "name": "Finalized",
      "type": "event"
    },
    {
      "anonymous": false,
      "inputs": [],
      "name": "BountySetupDone",
      "type": "event"
    },
    {
      "anonymous": false,
      "inputs": [
        {
          "indexed": true,
          "name": "target",
          "type": "address"
        },
        {
          "indexed": false,
          "name": "flag",
          "type": "bool"
        },
        {
          "indexed": false,
          "name": "amount",
          "type": "uint256"
        }
      ],
      "name": "BountyUpdated",
      "type": "event"
    },
    {
      "anonymous": false,
      "inputs": [
        {
          "indexed": true,
          "name": "beneficiary",
          "type": "address"
        },
        {
          "indexed": false,
          "name": "amount",
          "type": "uint256"
        }
      ],
      "name": "PurchaseReferral",
      "type": "event"
    },
    {
      "anonymous": false,
      "inputs": [
        {
          "indexed": false,
          "name": "stage",
          "type": "uint256"
        }
      ],
      "name": "StageUpdated",
      "type": "event"
    },
    {
      "anonymous": false,
      "inputs": [],
      "name": "ReferralCapReached",
      "type": "event"
    },
    {
      "constant": true,
      "inputs": [],
      "name": "isEnabled",
      "outputs": [
        {
          "name": "",
          "type": "bool"
        }
      ],
      "payable": false,
      "stateMutability": "view",
      "type": "function"
    },
    {
      "constant": true,
      "inputs": [],
      "name": "isClosed",
      "outputs": [
        {
          "name": "",
          "type": "bool"
        }
      ],
      "payable": false,
      "stateMutability": "view",
      "type": "function"
    },
    {
      "constant": true,
      "inputs": [],
      "name": "isGoalReached",
      "outputs": [
        {
          "name": "",
          "type": "bool"
        }
      ],
      "payable": false,
      "stateMutability": "view",
      "type": "function"
    },
    {
      "constant": true,
      "inputs": [],
      "name": "getTotalTokenSold",
      "outputs": [
        {
          "name": "",
          "type": "uint256"
        }
      ],
      "payable": false,
      "stateMutability": "view",
      "type": "function"
    },
    {
      "constant": true,
      "inputs": [],
      "name": "getOpeningTime",
      "outputs": [
        {
          "name": "",
          "type": "uint256"
        }
      ],
      "payable": false,
      "stateMutability": "view",
      "type": "function"
    },
    {
      "constant": true,
      "inputs": [
        {
          "name": "_index",
          "type": "uint256"
        }
      ],
      "name": "getOpeningTimeByStage",
      "outputs": [
        {
          "name": "",
          "type": "uint256"
        }
      ],
      "payable": false,
      "stateMutability": "view",
      "type": "function"
    },
    {
      "constant": true,
      "inputs": [],
      "name": "getClosingTime",
      "outputs": [
        {
          "name": "",
          "type": "uint256"
        }
      ],
      "payable": false,
      "stateMutability": "view",
      "type": "function"
    },
    {
      "constant": true,
      "inputs": [
        {
          "name": "_index",
          "type": "uint256"
        }
      ],
      "name": "getClosingTimeByStage",
      "outputs": [
        {
          "name": "",
          "type": "uint256"
        }
      ],
      "payable": false,
      "stateMutability": "view",
      "type": "function"
    },
    {
      "constant": true,
      "inputs": [],
      "name": "getCurrentCapacity",
      "outputs": [
        {
          "name": "",
          "type": "uint256"
        }
      ],
      "payable": false,
      "stateMutability": "view",
      "type": "function"
    },
    {
      "constant": true,
      "inputs": [
        {
          "name": "_index",
          "type": "uint256"
        }
      ],
      "name": "getCapacity",
      "outputs": [
        {
          "name": "",
          "type": "uint256"
        }
      ],
      "payable": false,
      "stateMutability": "view",
      "type": "function"
    },
    {
      "constant": true,
      "inputs": [],
      "name": "getCurrentSold",
      "outputs": [
        {
          "name": "",
          "type": "uint256"
        }
      ],
      "payable": false,
      "stateMutability": "view",
      "type": "function"
    },
    {
      "constant": true,
      "inputs": [
        {
          "name": "_index",
          "type": "uint256"
        }
      ],
      "name": "getSold",
      "outputs": [
        {
          "name": "",
          "type": "uint256"
        }
      ],
      "payable": false,
      "stateMutability": "view",
      "type": "function"
    },
    {
      "constant": true,
      "inputs": [],
      "name": "getCurrentRate",
      "outputs": [
        {
          "name": "",
          "type": "uint256"
        }
      ],
      "payable": false,
      "stateMutability": "view",
      "type": "function"
    },
    {
      "constant": true,
      "inputs": [
        {
          "name": "_index",
          "type": "uint256"
        }
      ],
      "name": "getRate",
      "outputs": [
        {
          "name": "",
          "type": "uint256"
        }
      ],
      "payable": false,
      "stateMutability": "view",
      "type": "function"
    },
    {
      "constant": true,
      "inputs": [],
      "name": "getRateWithoutBonus",
      "outputs": [
        {
          "name": "",
          "type": "uint256"
        }
      ],
      "payable": false,
      "stateMutability": "view",
      "type": "function"
    },
    {
      "constant": true,
      "inputs": [
        {
          "name": "_beneficiary",
          "type": "address"
        }
      ],
      "name": "getSales",
      "outputs": [
        {
          "name": "",
          "type": "uint256"
        }
      ],
      "payable": false,
      "stateMutability": "view",
      "type": "function"
    },
    {
      "constant": false,
      "inputs": [
        {
          "name": "_index",
          "type": "uint256"
        },
        {
          "name": "_openingTime",
          "type": "uint256"
        },
        {
          "name": "_closingTime",
          "type": "uint256"
        }
      ],
      "name": "setSalePeriod",
      "outputs": [],
      "payable": false,
      "stateMutability": "nonpayable",
      "type": "function"
    },
    {
      "constant": false,
      "inputs": [
        {
          "name": "_index",
          "type": "uint256"
        },
        {
          "name": "_rate",
          "type": "uint256"
        }
      ],
      "name": "setRate",
      "outputs": [],
      "payable": false,
      "stateMutability": "nonpayable",
      "type": "function"
    },
    {
      "constant": false,
      "inputs": [
        {
          "name": "_index",
          "type": "uint256"
        },
        {
          "name": "_capacity",
          "type": "uint256"
        }
      ],
      "name": "setCapacity",
      "outputs": [],
      "payable": false,
      "stateMutability": "nonpayable",
      "type": "function"
    },
    {
      "constant": false,
      "inputs": [
        {
          "name": "_claimable",
          "type": "bool"
        }
      ],
      "name": "setClaimable",
      "outputs": [],
      "payable": false,
      "stateMutability": "nonpayable",
      "type": "function"
    },
    {
      "constant": false,
      "inputs": [
        {
          "name": "_amount",
          "type": "uint256"
        }
      ],
      "name": "addPrivateSale",
      "outputs": [],
      "payable": false,
      "stateMutability": "nonpayable",
      "type": "function"
    },
    {
      "constant": false,
      "inputs": [
        {
          "name": "_amount",
          "type": "uint256"
        }
      ],
      "name": "subPrivateSale",
      "outputs": [],
      "payable": false,
      "stateMutability": "nonpayable",
      "type": "function"
    },
    {
      "constant": false,
      "inputs": [
        {
          "name": "_newAdmin",
          "type": "address"
        }
      ],
      "name": "setAdmin",
      "outputs": [],
      "payable": false,
      "stateMutability": "nonpayable",
      "type": "function"
    },
    {
      "constant": false,
      "inputs": [
        {
          "name": "newOwner",
          "type": "address"
        }
      ],
      "name": "transferOwnership",
      "outputs": [],
      "payable": false,
      "stateMutability": "nonpayable",
      "type": "function"
    },
    {
      "constant": false,
      "inputs": [
        {
          "name": "_referralAmount",
          "type": "uint256"
        },
        {
          "name": "_referralRateInviter",
          "type": "uint256"
        },
        {
          "name": "_referralRateInvitee",
          "type": "uint256"
        },
        {
          "name": "_bountyAmount",
          "type": "uint256"
        },
        {
          "name": "_whitelistBonusClosingTime",
          "type": "uint256"
        },
        {
          "name": "_whitelistBonusRate",
          "type": "uint256"
        },
        {
          "name": "_whitelistBonusAmount",
          "type": "uint256"
        }
      ],
      "name": "setupBounty",
      "outputs": [],
      "payable": false,
      "stateMutability": "nonpayable",
      "type": "function"
    },
    {
      "constant": false,
      "inputs": [
        {
          "name": "_openingTime",
          "type": "uint256"
        },
        {
          "name": "_closingTime",
          "type": "uint256"
        },
        {
          "name": "_capacity",
          "type": "uint256"
        },
        {
          "name": "_minimumWei",
          "type": "uint256"
        },
        {
          "name": "_maximumWei",
          "type": "uint256"
        },
        {
          "name": "_rate",
          "type": "uint256"
        }
      ],
      "name": "addStage",
      "outputs": [],
      "payable": false,
      "stateMutability": "nonpayable",
      "type": "function"
    },
    {
      "constant": false,
      "inputs": [
        {
          "name": "_token",
          "type": "address"
        }
      ],
      "name": "setToken",
      "outputs": [],
      "payable": false,
      "stateMutability": "nonpayable",
      "type": "function"
    },
    {
      "constant": false,
      "inputs": [],
      "name": "enableTokenSale",
      "outputs": [
        {
          "name": "",
          "type": "bool"
        }
      ],
      "payable": false,
      "stateMutability": "nonpayable",
      "type": "function"
    },
    {
      "constant": false,
      "inputs": [],
      "name": "updateStage",
      "outputs": [
        {
          "name": "",
          "type": "uint256"
        }
      ],
      "payable": false,
      "stateMutability": "nonpayable",
      "type": "function"
    },
    {
      "constant": false,
      "inputs": [],
      "name": "finalize",
      "outputs": [],
      "payable": false,
      "stateMutability": "nonpayable",
      "type": "function"
    },
    {
      "constant": false,
      "inputs": [
        {
          "name": "_beneficiary",
          "type": "address"
        }
      ],
      "name": "buyTokens",
      "outputs": [],
      "payable": true,
      "stateMutability": "payable",
      "type": "function"
    },
    {
      "constant": false,
      "inputs": [],
      "name": "claimToken",
      "outputs": [
        {
          "name": "",
          "type": "bool"
        }
      ],
      "payable": false,
      "stateMutability": "nonpayable",
      "type": "function"
    },
    {
      "constant": false,
      "inputs": [],
      "name": "claimRefund",
      "outputs": [],
      "payable": false,
      "stateMutability": "nonpayable",
      "type": "function"
    },
    {
      "constant": false,
      "inputs": [],
      "name": "claimBountyToken",
      "outputs": [
        {
          "name": "",
          "type": "bool"
        }
      ],
      "payable": false,
      "stateMutability": "nonpayable",
      "type": "function"
    },
    {
      "constant": false,
      "inputs": [
        {
          "name": "_address",
          "type": "address"
        },
        {
          "name": "_amount",
          "type": "uint256"
        }
      ],
      "name": "addBounty",
      "outputs": [
        {
          "name": "",
          "type": "bool"
        }
      ],
      "payable": false,
      "stateMutability": "nonpayable",
      "type": "function"
    },
    {
      "constant": false,
      "inputs": [
        {
          "name": "_address",
          "type": "address"
        },
        {
          "name": "_amount",
          "type": "uint256"
        }
      ],
      "name": "delBounty",
      "outputs": [
        {
          "name": "",
          "type": "bool"
        }
      ],
      "payable": false,
      "stateMutability": "nonpayable",
      "type": "function"
    },
    {
      "constant": true,
      "inputs": [
        {
          "name": "_address",
          "type": "address"
        }
      ],
      "name": "getBountyAmount",
      "outputs": [
        {
          "name": "",
          "type": "uint256"
        }
      ],
      "payable": false,
      "stateMutability": "view",
      "type": "function"
    },
    {
      "constant": false,
      "inputs": [
        {
          "name": "_inviter",
          "type": "address"
        },
        {
          "name": "_invitee",
          "type": "address"
        }
      ],
      "name": "addReferral",
      "outputs": [
        {
          "name": "",
          "type": "bool"
        }
      ],
      "payable": false,
      "stateMutability": "nonpayable",
      "type": "function"
    },
    {
      "constant": false,
      "inputs": [
        {
          "name": "_inviter",
          "type": "address"
        },
        {
          "name": "_invitee",
          "type": "address"
        }
      ],
      "name": "delReferral",
      "outputs": [
        {
          "name": "",
          "type": "bool"
        }
      ],
      "payable": false,
      "stateMutability": "nonpayable",
      "type": "function"
    },
    {
      "constant": true,
      "inputs": [
        {
          "name": "_address",
          "type": "address"
        }
      ],
      "name": "getReferral",
      "outputs": [
        {
          "name": "",
          "type": "address"
        }
      ],
      "payable": false,
      "stateMutability": "view",
      "type": "function"
    },
    {
      "constant": true,
      "inputs": [
        {
          "name": "_beneficiary",
          "type": "address"
        }
      ],
      "name": "isAccountWhitelisted",
      "outputs": [
        {
          "name": "",
          "type": "bool"
        }
      ],
      "payable": false,
      "stateMutability": "view",
      "type": "function"
    },
    {
      "constant": false,
      "inputs": [
        {
          "name": "_beneficiary",
          "type": "address"
        }
      ],
      "name": "addToWhitelist",
      "outputs": [],
      "payable": false,
      "stateMutability": "nonpayable",
      "type": "function"
    },
    {
      "constant": false,
      "inputs": [
        {
          "name": "_beneficiaries",
          "type": "address[]"
        }
      ],
      "name": "addManyToWhitelist",
      "outputs": [],
      "payable": false,
      "stateMutability": "nonpayable",
      "type": "function"
    },
    {
      "constant": false,
      "inputs": [
        {
          "name": "_beneficiary",
          "type": "address"
        }
      ],
      "name": "removeFromWhitelist",
      "outputs": [],
      "payable": false,
      "stateMutability": "nonpayable",
      "type": "function"
    },
    {
      "constant": true,
      "inputs": [
        {
          "name": "_beneficiary",
          "type": "address"
        }
      ],
      "name": "isAccountVerified",
      "outputs": [
        {
          "name": "",
          "type": "bool"
        }
      ],
      "payable": false,
      "stateMutability": "view",
      "type": "function"
    },
    {
      "constant": false,
      "inputs": [
        {
          "name": "_beneficiary",
          "type": "address"
        }
      ],
      "name": "setAccountVerified",
      "outputs": [],
      "payable": false,
      "stateMutability": "nonpayable",
      "type": "function"
    },
    {
      "constant": false,
      "inputs": [
        {
          "name": "_beneficiaries",
          "type": "address[]"
        }
      ],
      "name": "setManyAccountsVerified",
      "outputs": [],
      "payable": false,
      "stateMutability": "nonpayable",
      "type": "function"
    },
    {
      "constant": false,
      "inputs": [
        {
          "name": "_beneficiary",
          "type": "address"
        }
      ],
      "name": "unverifyAccount",
      "outputs": [],
      "payable": false,
      "stateMutability": "nonpayable",
      "type": "function"
    }
  ],
  "bytecode": "0x60806040526005805460ff199081169091556000600a8190556010819055601681905560178054909216909155601a819055601c55601d805461ffff191690553480156200004c57600080fd5b5060405160a08062003bd28339810160409081528151602083015191830151606084015160809094015160008054600160a060020a0319163317905591939091600160a060020a0384161515620000a257600080fd5b600160a060020a0385161515620000b857600080fd5b60008311620000c657600080fd5b60008211620000d457600080fd5b818111620000e157600080fd5b60018054600160a060020a03808716600160a060020a03199283161790925560028054888416921691909117908190556004859055600e849055600f83905560408051868152905191909216917f481b5185767db188561146464c5ed74c16b5d1c565a5a22f09d5af9dedcd4dc2919081900360200190a25050505050613a64806200016e6000396000f3006080604052600436106103765763ffffffff60e060020a600035041663084a401181146103815780630b5c3f87146103a85780630b9ea6c8146103e3578063144fa6d7146103f857806314aa0eaa146104195780631720684a1461042e5780631f5c6f67146104435780631fb8875d1461045b5780632ecd7020146104705780632f9cb9aa14610485578063378c93ad1461049a57806339a13fb3146104b45780633b0f0f2f146104c95780633bc578fe146105065780634042b66f1461051e5780634451d89f1461053357806346df2ccb146105485780634bb278f31461056357806351eecc2314610578578063521eb273146105a257806356a765c4146105b757806357764094146105cc5780635830f2ea146105e457806358f6a7db146105fc5780635a93bf71146106205780635bf5d54c146106475780635c06d8801461065c57806368db96a6146106715780636aa633b6146106865780636bd68a8f1461069b578063704b6c02146106b057806374478bb3146106d1578063845ddcb2146106e65780638907e78714610736578063899a1e36146107575780638ab1d6811461077b5780638ba209b61461079c5780638c10671c146107bd5780638d4e4083146107dd5780638da5cb5b146107f2578063906a26e0146108075780639075f1241461081c57806390c322951461083d578063979cf824146108525780639b19251a146108675780639ca423b314610888578063aba89198146108a9578063b5545a3c146108be578063bcd5349f146108d3578063c062f578146108eb578063c1c35e8d14610900578063c2b6b58c14610921578063c2db26fc14610936578063c6b9f06a14610957578063ccd331bf14610978578063cd132aad1461098d578063cdfbea58146109a5578063d3eb6f61146109c6578063d7463573146109db578063d7ea39c6146109f0578063d8b99cb214610a05578063dbce1ff714610a26578063dedeb3ca14610a3b578063dee2b05814610a50578063df6ee6b714610a6b578063e071681d14610a92578063e16bd3b714610ab2578063e43252d714610ad3578063e6af8f0d14610af4578063ec8ac4d814610b15578063ec9723ad14610b29578063f2fde38b14610b47578063f7fb07b014610b68578063f851a44014610b7d578063fb86a40414610b92578063fbfa77cf14610ba7578063fc0c546a14610bbc578063ff59779014610bd1575b61037f33610be9565b005b34801561038d57600080fd5b50610396610c81565b60408051918252519081900360200190f35b3480156103b457600080fd5b506103cf600160a060020a0360043581169060243516610c87565b604080519115158252519081900360200190f35b3480156103ef57600080fd5b50610396610da3565b34801561040457600080fd5b5061037f600160a060020a0360043516610dcd565b34801561042557600080fd5b506103cf610e13565b34801561043a57600080fd5b50610396610fae565b34801561044f57600080fd5b50610396600435610fb4565b34801561046757600080fd5b50610396610fec565b34801561047c57600080fd5b50610396610ff2565b34801561049157600080fd5b50610396611044565b3480156104a657600080fd5b5061037f600435151561106e565b3480156104c057600080fd5b506103cf6110bd565b3480156104d557600080fd5b506104ea600160a060020a036004351661118f565b60408051600160a060020a039092168252519081900360200190f35b34801561051257600080fd5b506103966004356111ad565b34801561052a57600080fd5b506103966111e5565b34801561053f57600080fd5b506103cf6111eb565b34801561055457600080fd5b5061037f600435602435611352565b34801561056f57600080fd5b5061037f6113bb565b34801561058457600080fd5b5061037f60043560243560443560643560843560a43560c435611435565b3480156105ae57600080fd5b506104ea611516565b3480156105c357600080fd5b50610396611525565b3480156105d857600080fd5b5061039660043561152b565b3480156105f057600080fd5b5061037f600435611563565b34801561060857600080fd5b506103cf600160a060020a036004351660243561161e565b34801561062c57600080fd5b506103cf600160a060020a0360043581169060243516611773565b34801561065357600080fd5b50610396611889565b34801561066857600080fd5b5061039661188f565b34801561067d57600080fd5b506103966118bc565b34801561069257600080fd5b506103cf6118c2565b3480156106a757600080fd5b506103966118cb565b3480156106bc57600080fd5b5061037f600160a060020a03600435166118d1565b3480156106dd57600080fd5b506103cf611997565b3480156106f257600080fd5b506106fe6004356119a5565b604080519788526020880196909652868601949094526060860192909252608085015260a084015260c0830152519081900360e00190f35b34801561074257600080fd5b506103cf600160a060020a03600435166119f5565b34801561076357600080fd5b506103cf600160a060020a0360043516602435611a13565b34801561078757600080fd5b5061037f600160a060020a0360043516611b5c565b3480156107a857600080fd5b506103cf600160a060020a0360043516611be0565b3480156107c957600080fd5b5061037f6004803560248101910135611bfe565b3480156107e957600080fd5b506103cf611d77565b3480156107fe57600080fd5b506104ea611d80565b34801561081357600080fd5b50610396611d8f565b34801561082857600080fd5b5061037f600160a060020a0360043516611d95565b34801561084957600080fd5b50610396611e20565b34801561085e57600080fd5b506103cf611e26565b34801561087357600080fd5b506103cf600160a060020a0360043516611e2f565b34801561089457600080fd5b506104ea600160a060020a0360043516611e44565b3480156108b557600080fd5b50610396611e5f565b3480156108ca57600080fd5b5061037f611e89565b3480156108df57600080fd5b50610396600435611f7a565b3480156108f757600080fd5b50610396611fb2565b34801561090c57600080fd5b50610396600160a060020a0360043516612170565b34801561092d57600080fd5b506103cf61218b565b34801561094257600080fd5b5061037f600160a060020a03600435166121ba565b34801561096357600080fd5b50610396600160a060020a036004351661223d565b34801561098457600080fd5b5061039661224f565b34801561099957600080fd5b5061037f600435612255565b3480156109b157600080fd5b50610396600160a060020a03600435166122fa565b3480156109d257600080fd5b506103cf61230c565b3480156109e757600080fd5b50610396612320565b3480156109fc57600080fd5b506103cf61234a565b348015610a1157600080fd5b506103cf600160a060020a0360043516612353565b348015610a3257600080fd5b50610396612368565b348015610a4757600080fd5b5061039661236e565b348015610a5c57600080fd5b5061037f600435602435612374565b348015610a7757600080fd5b5061037f60043560243560443560643560843560a4356124a7565b348015610a9e57600080fd5b5061037f6004803560248101910135612797565b348015610abe57600080fd5b50610396600160a060020a0360043516612882565b348015610adf57600080fd5b5061037f600160a060020a036004351661289d565b348015610b0057600080fd5b506103cf600160a060020a036004351661295b565b61037f600160a060020a0360043516610be9565b348015610b3557600080fd5b5061037f600435602435604435612970565b348015610b5357600080fd5b5061037f600160a060020a0360043516612a07565b348015610b7457600080fd5b50610396612ab1565b348015610b8957600080fd5b506104ea612ac4565b348015610b9e57600080fd5b50610396612ad3565b348015610bb357600080fd5b506104ea612ad9565b348015610bc857600080fd5b506104ea612ae8565b348015610bdd57600080fd5b50610396600435612af7565b346000610bf68383612b2f565b610bff82612cde565b601054909150610c15908363ffffffff612cfe16565b601055610c228382612d18565b60408051838152602081018390528151600160a060020a0386169233927f623b3804fa71d67900d064613da8f94b9617215ee90799290593e1745087ad18929081900390910190a3610c72612fa0565b610c7c8383613006565b505050565b600a5481565b60008054600160a060020a0316331480610cab5750600154600160a060020a031633145b1515610cb657600080fd5b600160a060020a038316600090815260066020526040902054839060ff161515600114610ce257600080fd5b600160a060020a03811660009081526007602052604090205460ff161515600114610d0c57600080fd5b600160a060020a038316600090815260066020526040902054839060ff161515600114610d3857600080fd5b600160a060020a03811660009081526007602052604090205460ff161515600114610d6257600080fd5b5050600160a060020a039182166000908152601260205260409020805473ffffffffffffffffffffffffffffffffffffffff19169390921692909217905590565b6000601b601c54815481101515610db657fe5b906000526020600020906007020160060154905090565b600054600160a060020a03163314610de457600080fd5b6003805473ffffffffffffffffffffffffffffffffffffffff1916600160a060020a0392909216919091179055565b601d546000908190819060ff16151560011480610e3d5750601d5460ff6101009091041615156001145b1515610e4857600080fd5b610e5061230c565b1515610e5b57600080fd5b3360008181526006602052604090205460ff161515600114610e7c57600080fd5b600160a060020a03811660009081526007602052604090205460ff161515600114610ea657600080fd5b336000818152601860209081526040918290205482518181529251939650945085927fe42df0d9493dfd0d7f69902c895b94c190a53e8c27876a86f45e7c997d9d8f7c9281900390910190a2600160a060020a038084166000818152601860209081526040808320839055600354835482517f23b872dd000000000000000000000000000000000000000000000000000000008152908716600482015260248101959095526044850188905290519416936323b872dd93606480820194918390030190829087803b158015610f7a57600080fd5b505af1158015610f8e573d6000803e3d6000fd5b505050506040513d6020811015610fa457600080fd5b5051935050505090565b60095481565b601b546000908210610fc557600080fd5b601b805483908110610fd357fe5b9060005260206000209060070201600001549050919050565b60165481565b600080805b601b5481101561103e57611034601b8281548110151561101357fe5b90600052602060002090600702016006015483612cfe90919063ffffffff16565b9150600101610ff7565b50919050565b6000601b601c5481548110151561105757fe5b906000526020600020906007020160010154905090565b600054600160a060020a0316331461108557600080fd5b600181151514156110a35761109861230c565b15156110a357600080fd5b601d80549115156101000261ff0019909216919091179055565b60008054600160a060020a031633146110d557600080fd5b601b546000106110e457600080fd5b600254600160a060020a03166110f86133ec565b600160a060020a03909116815260405190819003602001906000f080158015611125573d6000803e3d6000fd5b506011805473ffffffffffffffffffffffffffffffffffffffff1916600160a060020a03929092169190911790556005805460ff191660011790556040517f887e7ccf5673eef45a5c69179950777b13841a28f0db61febac61f2b8e729de490600090a150600190565b600160a060020a039081166000908152601260205260409020541690565b601b5460009082106111be57600080fd5b601b8054839081106111cc57fe5b9060005260206000209060070201600101549050919050565b60105481565b601d546000908190819060ff161515600114806112155750601d5460ff6101009091041615156001145b151561122057600080fd5b61122861230c565b151561123357600080fd5b3360008181526006602052604090205460ff16151560011461125457600080fd5b600160a060020a03811660009081526007602052604090205460ff16151560011461127e57600080fd5b336000818152600d60209081526040918290205482518181529251939650945085927fe42df0d9493dfd0d7f69902c895b94c190a53e8c27876a86f45e7c997d9d8f7c9281900390910190a2600160a060020a038084166000818152600d60209081526040808320839055600354835482517f23b872dd000000000000000000000000000000000000000000000000000000008152908716600482015260248101959095526044850188905290519416936323b872dd93606480820194918390030190829087803b158015610f7a57600080fd5b600054600160a060020a0316331461136957600080fd5b601c54821161137757600080fd5b601b54821061138557600080fd5b6000811161139257600080fd5b80601b838154811015156113a257fe5b9060005260206000209060070201600501819055505050565b600054600160a060020a031633146113d257600080fd5b601d5460ff16156113e257600080fd5b6113ea61218b565b15156113f557600080fd5b6113fd61306c565b6040517f6823b073d48d6e3a7d385eeb601452d680e74bb46afe3255a7d778f3a9b1768190600090a1601d805460ff19166001179055565b600054600160a060020a0316331461144c57600080fd5b6000871161145957600080fd5b6000861180156114695750606486105b151561147457600080fd5b6000851180156114845750606485105b151561148f57600080fd5b42831161149b57600080fd5b600082116114a857600080fd5b8181116114b457600080fd5b600084116114c157600080fd5b60138790556014869055601585905560198490556009839055600b829055600c8190556040517f981375e01cb0539ab3ccafb0b225b129b3057efac5cae04b18d91903641c9ce090600090a150505050505050565b600254600160a060020a031681565b600c5481565b601b54600090821061153c57600080fd5b601b80548390811061154a57fe5b9060005260206000209060070201600501549050919050565b600054600160a060020a0316331461157a57600080fd5b601c541561158757600080fd5b6000811161159457600080fd5b80601b60008154811015156115a557fe5b9060005260206000209060070201600601541115156115c357600080fd5b6115f781601b60008154811015156115d757fe5b90600052602060002090600702016006015461315790919063ffffffff16565b601b8054600090811061160657fe5b90600052602060002090600702016006018190555050565b60008054600160a060020a03163314806116425750600154600160a060020a031633145b151561164d57600080fd5b600160a060020a038316600090815260066020526040902054839060ff16151560011461167957600080fd5b600160a060020a03811660009081526007602052604090205460ff1615156001146116a357600080fd5b600160a060020a0384166000908152601860205260409020548311156116c857600080fd5b601a548311156116d757600080fd5b601a546116ea908463ffffffff61315716565b601a55600160a060020a038416600090815260186020526040902054611716908463ffffffff61315716565b600160a060020a03851660008181526018602090815260408083209490945583519182528101869052825191927f3a9e9b1f8266a9262ade2d291ca7683d067f6624208ed4739f91e660e3c23e3b92918290030190a25092915050565b60008054600160a060020a03163314806117975750600154600160a060020a031633145b15156117a257600080fd5b600160a060020a038316600090815260066020526040902054839060ff1615156001146117ce57600080fd5b600160a060020a03811660009081526007602052604090205460ff1615156001146117f857600080fd5b600160a060020a038316600090815260066020526040902054839060ff16151560011461182457600080fd5b600160a060020a03811660009081526007602052604090205460ff16151560011461184e57600080fd5b5050600160a060020a039091166000908152601260205260409020805473ffffffffffffffffffffffffffffffffffffffff19169055919050565b601c5481565b601b80546000919060001981019081106118a557fe5b906000526020600020906007020160050154905090565b600b5481565b60055460ff1690565b60135481565b600054600160a060020a031633146118e857600080fd5b600160a060020a03811615156118fd57600080fd5b600160a060020a03811630141561191357600080fd5b600054600160a060020a038281169116141561192e57600080fd5b600154604051600160a060020a038084169216907ff8ccb027dfcd135e000e9d45e6cc2d662578a8825d4c45b5e32e0adf67e79ec690600090a36001805473ffffffffffffffffffffffffffffffffffffffff1916600160a060020a0392909216919091179055565b601d54610100900460ff1681565b601b8054829081106119b357fe5b90600052602060002090600702016000915090508060000154908060010154908060020154908060030154908060040154908060050154908060060154905087565b600160a060020a031660009081526006602052604090205460ff1690565b60008054600160a060020a0316331480611a375750600154600160a060020a031633145b1515611a4257600080fd5b600160a060020a038316600090815260066020526040902054839060ff161515600114611a6e57600080fd5b600160a060020a03811660009081526007602052604090205460ff161515600114611a9857600080fd5b82611ab0601a5460195461315790919063ffffffff16565b1015611abb57600080fd5b601a54611ace908463ffffffff612cfe16565b601a55600160a060020a038416600090815260186020526040902054611afa908463ffffffff612cfe16565b600160a060020a03851660008181526018602090815260409182902093909355805160018152928301869052805191927f3a9e9b1f8266a9262ade2d291ca7683d067f6624208ed4739f91e660e3c23e3b929081900390910190a25092915050565b600054600160a060020a0316331480611b7f5750600154600160a060020a031633145b1515611b8a57600080fd5b600160a060020a0381166000818152600660209081526040808320805460ff191690558051928352517ff93f9a76c1bf3444d22400a00cb9fe990e6abe9dbb333fda48859cfee864543d9281900390910190a250565b600160a060020a031660009081526007602052604090205460ff1690565b60008054600160a060020a0316331480611c225750600154600160a060020a031633145b1515611c2d57600080fd5b60009050600954421015611cbb575060005b81811015611cb657600160066000858585818110611c5957fe5b60209081029290920135600160a060020a0316835250810191909152604001600020805460ff1916911515919091179055611cae838383818110611c9957fe5b90506020020135600160a060020a0316613169565b600101611c3f565b610c7c565b5060005b81811015611d1257600160066000858585818110611cd957fe5b60209081029290920135600160a060020a0316835250810191909152604001600020805460ff1916911515919091179055600101611cbf565b7fc1d1947210ee563a9e6fda88e7360ad167cd7dc61a01d093688956e2220a49f88383600160405180806020018315151515815260200182810382528585828181526020019250602002808284376040519201829003965090945050505050a1505050565b601d5460ff1681565b600054600160a060020a031681565b600e5481565b600054600160a060020a0316331480611db85750600154600160a060020a031633145b1515611dc357600080fd5b600160a060020a038116600081815260076020908152604091829020805460ff19166001908117909155825190815291517e255232b9c7545c95a579e3b4ed6b224bcadd569379c69d9715d500ed93da389281900390910190a250565b601a5481565b60055460ff1681565b60066020526000908152604090205460ff1681565b601260205260009081526040902054600160a060020a031681565b6000601b601c54815481101515611e7257fe5b906000526020600020906007020160020154905090565b3360008181526006602052604090205460ff161515600114611eaa57600080fd5b600160a060020a03811660009081526007602052604090205460ff161515600114611ed457600080fd5b601d5460ff161515600114611ee857600080fd5b611ef061230c565b15611efa57600080fd5b601154604080517ffa89401a0000000000000000000000000000000000000000000000000000000081523360048201529051600160a060020a039092169163fa89401a9160248082019260009290919082900301818387803b158015611f5f57600080fd5b505af1158015611f73573d6000803e3d6000fd5b5050505050565b601b546000908210611f8b57600080fd5b601b805483908110611f9957fe5b9060005260206000209060070201600201549050919050565b6005546000908190819060ff161515600114611fcd57600080fd5b601b54601c5410611fdd57600080fd5b601b601c54815481101515611fee57fe5b600091825260209091206007909102015442101561200b57600080fd5b612062601b601c5481548110151561201f57fe5b906000526020600020906007020160060154601b601c5481548110151561204257fe5b90600052602060002090600702016002015461315790919063ffffffff16565b9150601b601c5481548110151561207557fe5b90600052602060002090600702016001015442111561103e57601c546120a290600163ffffffff612cfe16565b90506000821180156120b55750601b5481105b15612132576120ed82601b838154811015156120cd57fe5b906000526020600020906007020160020154612cfe90919063ffffffff16565b601b8054839081106120fb57fe5b6000918252602090912060026007909202010155601b80548290811061211d57fe5b90600052602060002090600702016002015491505b601c8190556040805182815290517f34cf54504fd39ab670a54acbb37f686c5bd25e6eedfa39889cba899d360bc7d99181900360200190a150919050565b600160a060020a031660009081526018602052604090205490565b601b80546000919060001981019081106121a157fe5b9060005260206000209060070201600101544211905090565b600054600160a060020a03163314806121dd5750600154600160a060020a031633145b15156121e857600080fd5b600160a060020a0381166000818152600760209081526040808320805460ff191690558051928352517e255232b9c7545c95a579e3b4ed6b224bcadd569379c69d9715d500ed93da389281900390910190a250565b600d6020526000908152604090205481565b60195481565b600054600160a060020a0316331461226c57600080fd5b601c541561227957600080fd5b6000811161228657600080fd5b6122bb601b600081548110151561229957fe5b906000526020600020906007020160060154601b600081548110151561204257fe5b81106122c657600080fd5b6115f781601b60008154811015156122da57fe5b906000526020600020906007020160060154612cfe90919063ffffffff16565b60186020526000908152604090205481565b6000600e54612319610ff2565b1015905090565b6000601b601c5481548110151561233357fe5b906000526020600020906007020160000154905090565b60175460ff1681565b60076020526000908152604090205460ff1681565b60145481565b60155481565b600054600160a060020a0316331461238b57600080fd5b601c54821161239957600080fd5b601b5482106123a757600080fd5b600081116123b457600080fd5b600f5481106123c257600080fd5b80612416601b848154811015156123d557fe5b906000526020600020906007020160050154601b858154811015156123f657fe5b90600052602060002090600702016003015461328d90919063ffffffff16565b1061242057600080fd5b80612474601b8481548110151561243357fe5b906000526020600020906007020160050154601b8581548110151561245457fe5b90600052602060002090600702016004015461328d90919063ffffffff16565b1061247e57600080fd5b80601b8381548110151561248e57fe5b9060005260206000209060070201600201819055505050565b6124af6133fc565b600054600160a060020a031633146124c657600080fd5b60055460ff16156124d657600080fd5b8686116124e257600080fd5b600085116124ef57600080fd5b600f5485106124fd57600080fd5b6000841161250a57600080fd5b8383101561251757600080fd5b6000821161252457600080fd5b84612535858463ffffffff61328d16565b1061253f57600080fd5b84612550848463ffffffff61328d16565b1061255a57600080fd5b601b54600010156125e357601b8054600019810190811061257757fe5b60009182526020918290206040805160e08101825260079093029091018054835260018101549383018490526002810154918301919091526003810154606083015260048101546080830152600581015460a08301526006015460c0820152915087116125e357600080fd5b6040805160e081018252888152602080820189815282840189815260608085018a815260808087018b815260a08089018c8152600060c0808c01828152601b805460018101825593529b517f3ad8aa4f87544323a9d1e5dd902f40c356527a7955687113db5f9a85ad579dc160079093029283015598517f3ad8aa4f87544323a9d1e5dd902f40c356527a7955687113db5f9a85ad579dc282015596517f3ad8aa4f87544323a9d1e5dd902f40c356527a7955687113db5f9a85ad579dc388015593517f3ad8aa4f87544323a9d1e5dd902f40c356527a7955687113db5f9a85ad579dc487015590517f3ad8aa4f87544323a9d1e5dd902f40c356527a7955687113db5f9a85ad579dc586015591517f3ad8aa4f87544323a9d1e5dd902f40c356527a7955687113db5f9a85ad579dc685015595517f3ad8aa4f87544323a9d1e5dd902f40c356527a7955687113db5f9a85ad579dc79093019290925585518d81529384018c90528386018b9052830189905292820187905291810185905291517f5858d9b130a07462c8ba8f5a091c7463cdb0d5dfc3414467a51f9c8d3d6835799281900390910190a150505050505050565b60008054600160a060020a03163314806127bb5750600154600160a060020a031633145b15156127c657600080fd5b5060005b8181101561281d576001600760008585858181106127e457fe5b60209081029290920135600160a060020a0316835250810191909152604001600020805460ff19169115159190911790556001016127ca565b7f3eb50e579d2144f480a8551725cd5c7a8613fef3814f38daa4ee54154c9bddb68383600160405180806020018315151515815260200182810382528585828181526020019250602002808284376040519201829003965090945050505050a1505050565b600160a060020a03166000908152600d602052604090205490565b600054600160a060020a03163314806128c05750600154600160a060020a031633145b15156128cb57600080fd5b600160a060020a0381166000908152600660209081526040808320805460ff19166001179055600890915290205460ff1615801561290a575060095442105b156129185761291881613169565b60408051600181529051600160a060020a038316917ff93f9a76c1bf3444d22400a00cb9fe990e6abe9dbb333fda48859cfee864543d919081900360200190a250565b60086020526000908152604090205460ff1681565b600054600160a060020a0316331461298757600080fd5b42821161299357600080fd5b81811161299f57600080fd5b601c5483116129ad57600080fd5b601b5483106129bb57600080fd5b81601b848154811015156129cb57fe5b6000918252602090912060079091020155601b8054829190859081106129ed57fe5b906000526020600020906007020160010181905550505050565b600054600160a060020a03163314612a1e57600080fd5b600160a060020a0381161515612a3357600080fd5b600160a060020a038116301415612a4957600080fd5b60008054604051600160a060020a03808516939216917f8be0079c531659141344cd1fd0a4f28419497f9722a3daafe3b4186f6b6457e091a36000805473ffffffffffffffffffffffffffffffffffffffff1916600160a060020a0392909216919091179055565b6000601b601c548154811015156118a557fe5b600154600160a060020a031681565b600f5481565b601154600160a060020a031681565b600354600160a060020a031681565b601b546000908210612b0857600080fd5b601b805483908110612b1657fe5b9060005260206000209060070201600601549050919050565b600160a060020a0382166000908152600660205260408120548190849060ff161515600114612b5d57600080fd5b600160a060020a03811660009081526007602052604090205460ff161515600114612b8757600080fd5b600160a060020a0385161515612b9c57600080fd5b831515612ba857600080fd5b60055460ff161515600114612bbc57600080fd5b601b601c54815481101515612bcd57fe5b6000918252602090912060079091020154421015612bea57600080fd5b612bf2611fb2565b601b54601c5491945011612c0557600080fd5b601b601c54815481101515612c1657fe5b9060005260206000209060070201600001544210158015612c595750601b601c54815481101515612c4357fe5b9060005260206000209060070201600101544211155b1515612c6457600080fd5b601b601c54815481101515612c7557fe5b9060005260206000209060070201600301548410151515612c9557600080fd5b601b601c54815481101515612ca657fe5b9060005260206000209060070201600401548411151515612cc657600080fd5b612ccf84612cde565b915081831015611f7357600080fd5b6000612cf8612ceb612ab1565b839063ffffffff61328d16565b92915050565b600082820183811015612d0d57fe5b8091505b5092915050565b6000806000806000806000612d3888601b601c548154811015156122da57fe5b601b601c54815481101515612d4957fe5b906000526020600020906007020160060181905550612d6889896132b8565b600160a060020a03808a166000908152601260205260409020543498501695508515801590612d9a575060175460ff16155b15612f9557612da8876133c8565b601454909550612dcf90612dc387606463ffffffff6133d516565b9063ffffffff61328d16565b601554909450612dea90612dc387606463ffffffff6133d516565b9250612e0360165460135461315790919063ffffffff16565b9150811515612e1e576017805460ff19166001179055612f95565b818410612e64576040519193506000925083917f85ffe6a98fec596b0fbb1de18a071ba2ed4a7e51673575fbea30fb657bdf5519908490a16017805460ff191660011790555b60175460ff16158015612e775750818410155b15612ec657612e8c828563ffffffff61315716565b6040519093507f85ffe6a98fec596b0fbb1de18a071ba2ed4a7e51673575fbea30fb657bdf551990600090a16017805460ff191660011790555b612ed6848463ffffffff612cfe16565b601654909150612eec908263ffffffff612cfe16565b6016556000841115612f4257612f0286856132b8565b604080518581529051600160a060020a038816917f5d99c7882f16e240169547a9215180521502d94f149258e0aabaf56904b6141b919081900360200190a25b6000831115612f9557612f5589846132b8565b604080518481529051600160a060020a038b16917f5d99c7882f16e240169547a9215180521502d94f149258e0aabaf56904b6141b919081900360200190a25b505050505050505050565b601154604080517ff340fa010000000000000000000000000000000000000000000000000000000081523360048201529051600160a060020a039092169163f340fa01913491602480830192600092919082900301818588803b158015611f5f57600080fd5b61300e611e5f565b613016610da3565b141561306857601c5461303090600163ffffffff612cfe16565b601c81905560408051918252517f34cf54504fd39ab670a54acbb37f686c5bd25e6eedfa39889cba899d360bc7d99181900360200190a15b5050565b61307461230c565b156130e957601160009054906101000a9004600160a060020a0316600160a060020a03166343d726d66040518163ffffffff1660e060020a028152600401600060405180830381600087803b1580156130cc57600080fd5b505af11580156130e0573d6000803e3d6000fd5b50505050613155565b601160009054906101000a9004600160a060020a0316600160a060020a0316638c52dc416040518163ffffffff1660e060020a028152600401600060405180830381600087803b15801561313c57600080fd5b505af1158015613150573d6000803e3d6000fd5b505050505b565b60008282111561316357fe5b50900390565b600160a060020a038116151561317e5761328a565b600160a060020a03811660009081526008602052604090205460ff161515600114156131a95761328a565b600b54600a54600c546131c19163ffffffff61315716565b111561328a57600160a060020a0381166000908152600860205260409020805460ff19166001179055600b54600a546131ff9163ffffffff612cfe16565b600a55600b54600160a060020a03821660009081526018602052604090205461322d9163ffffffff612cfe16565b600160a060020a03821660008181526018602090815260409182902093909355600b5481516001815293840152805191927f3a9e9b1f8266a9262ade2d291ca7683d067f6624208ed4739f91e660e3c23e3b929081900390910190a25b50565b6000808315156132a05760009150612d11565b508282028284828115156132b057fe5b0414612d0d57fe5b601d54610100900460ff16156133825760035460008054604080517f23b872dd000000000000000000000000000000000000000000000000000000008152600160a060020a039283166004820152868316602482015260448101869052905191909316926323b872dd9260648083019360209390929083900390910190829087803b15801561334657600080fd5b505af115801561335a573d6000803e3d6000fd5b505050506040513d602081101561337057600080fd5b5051151561337d57600080fd5b613068565b600160a060020a0382166000908152600d60205260409020546133ab908263ffffffff612cfe16565b600160a060020a0383166000908152600d60205260409020555050565b6000612cf8612ceb61188f565b60008082848115156133e357fe5b04949350505050565b6040516105fe8061343b83390190565b60e0604051908101604052806000815260200160008152602001600081526020016000815260200160008152602001600081526020016000815250905600608060405234801561001057600080fd5b506040516020806105fe833981016040525160008054600160a060020a03191633179055600160a060020a038116151561004957600080fd5b60028054600160a060020a031916600160a060020a03929092169190911760a060020a60ff021916905561057c806100826000396000f3006080604052600436106100985763ffffffff7c010000000000000000000000000000000000000000000000000000000060003504166343d726d6811461009d578063521eb273146100b45780638c52dc41146100e55780638da5cb5b146100fa578063c19d93fb1461010f578063cb13cddb14610148578063f2fde38b1461017b578063f340fa011461019c578063fa89401a146101b0575b600080fd5b3480156100a957600080fd5b506100b26101d1565b005b3480156100c057600080fd5b506100c96102a7565b60408051600160a060020a039092168252519081900360200190f35b3480156100f157600080fd5b506100b26102b6565b34801561010657600080fd5b506100c9610340565b34801561011b57600080fd5b5061012461034f565b6040518082600281111561013457fe5b60ff16815260200191505060405180910390f35b34801561015457600080fd5b50610169600160a060020a036004351661035f565b60408051918252519081900360200190f35b34801561018757600080fd5b506100b2600160a060020a0360043516610371565b6100b2600160a060020a0360043516610405565b3480156101bc57600080fd5b506100b2600160a060020a0360043516610485565b600054600160a060020a031633146101e857600080fd5b60006002805460a060020a900460ff169081111561020257fe5b1461020c57600080fd5b6002805474ff00000000000000000000000000000000000000001916740200000000000000000000000000000000000000001790556040517f1cdde67b72a90f19919ac732a437ac2f7a10fc128d28c2a6e525d89ce5cd9d3a90600090a1600254604051600160a060020a0390911690303180156108fc02916000818181858888f193505050501580156102a4573d6000803e3d6000fd5b50565b600254600160a060020a031681565b600054600160a060020a031633146102cd57600080fd5b60006002805460a060020a900460ff16908111156102e757fe5b146102f157600080fd5b6002805474ff0000000000000000000000000000000000000000191660a060020a1790556040517f599d8e5a83cffb867d051598c4d70e805d59802d8081c1c7d6dffc5b6aca2b8990600090a1565b600054600160a060020a031681565b60025460a060020a900460ff1681565b60016020526000908152604090205481565b600054600160a060020a0316331461038857600080fd5b600160a060020a038116151561039d57600080fd5b60008054604051600160a060020a03808516939216917f8be0079c531659141344cd1fd0a4f28419497f9722a3daafe3b4186f6b6457e091a36000805473ffffffffffffffffffffffffffffffffffffffff1916600160a060020a0392909216919091179055565b600054600160a060020a0316331461041c57600080fd5b60006002805460a060020a900460ff169081111561043657fe5b1461044057600080fd5b600160a060020a038116600090815260016020526040902054610469903463ffffffff61053a16565b600160a060020a03909116600090815260016020526040902055565b600060016002805460a060020a900460ff16908111156104a157fe5b146104ab57600080fd5b50600160a060020a038116600081815260016020526040808220805490839055905190929183156108fc02918491818181858888f193505050501580156104f6573d6000803e3d6000fd5b50604080518281529051600160a060020a038416917fd7dee2702d63ad89917b6a4da9981c90c4d24f8c2bdfd64c604ecae57d8d0651919081900360200190a25050565b60008282018381101561054957fe5b93925050505600a165627a7a72305820a23b46a76df7b964a062bfe59b9bd6c821ffc8d30703f3d0f376e04a3cf1264e0029a165627a7a7230582038f127a234f4a7fa78bf94f542f7b3bd268f16f90cf759854b4c2a1fa6013bdc0029",
  "source": "pragma solidity ^0.4.19;\n\nimport \"./SafeMath.sol\";\nimport \"./RefundVault.sol\";\nimport \"./ACAToken.sol\";\n\ncontract ACATokenSale {\n    using SafeMath for uint256;\n\n    address public owner;\n    address public admin;\n\n    address public wallet;\n    ACAToken public token;\n\n    uint256 totalSupply;\n\n    struct StageInfo {\n        uint256 opening;\n        uint256 closing;\n        uint256 capacity;\n        uint256 minimumWei;\n        uint256 maximumWei;\n        uint256 rate;\n        uint256 sold;\n    }\n    bool public tokenSaleEnabled = false;\n\n    mapping(address => bool) public whitelist;\n    mapping(address => bool) public kyclist;\n    mapping(address => bool) public whitelistBonus;\n\n    uint256 public whitelistBonusClosingTime;\n    uint256 public whitelistBonusSent = 0;\n    uint256 public whitelistBonusRate;\n    uint256 public whitelistBonusAmount;\n\n    mapping (address => uint256) public sales;\n    uint256 public softCap;\n    uint256 public hardCap;\n    uint256 public weiRaised = 0;\n\n    RefundVault public vault;\n\n    mapping (address => address) public referrals;\n    uint256 public referralAmount;\n    uint256 public referralRateInviter;\n    uint256 public referralRateInvitee;\n    uint256 public referralSent = 0;\n    bool public referralDone = false;\n\n    mapping (address => uint256) public bounties;\n    uint256 public bountyAmount;\n    uint256 public bountySent = 0;\n\n    StageInfo[] public stages;\n    uint256 public currentStage = 0;\n\n    bool public isFinalized = false;\n    bool public isClaimable = false;\n\n    // events\n    event OwnershipTransferred(address indexed previousOwner, address indexed newOwner);\n    event AdminTransferred(address indexed previousAdmin, address indexed newAdmin);\n    event TokenSaleCreated(address indexed wallet, uint256 totalSupply);\n    event StageAdded(uint256 openingTime, uint256 closingTime, uint256 capacity, uint256 minimumWei, uint256 maximumWei, uint256 rate);\n    event TokenSaleEnabled();\n\n    event WhitelistUpdated(address indexed beneficiary, bool flag);\n    event VerificationUpdated(address indexed beneficiary, bool flag);\n    event BulkWhitelistUpdated(address[] beneficiary, bool flag);\n    event BulkVerificationUpdated(address[] beneficiary, bool flag);\n\n    event TokenPurchase(address indexed purchaser, address indexed beneficiary, uint256 value, uint256 amount);\n    event TokenClaimed(address indexed beneficiary, uint256 amount);\n    event Finalized();\n    event BountySetupDone();\n    event BountyUpdated(address indexed target, bool flag, uint256 amount);\n    event PurchaseReferral(address indexed beneficiary, uint256 amount);\n    event StageUpdated(uint256 stage);\n    event ReferralCapReached();\n\n    // modifiers\n    modifier onlyOwner() {\n        require(msg.sender == owner);\n        _;\n    }\n\n    modifier onlyAdmin() {\n        require(msg.sender == owner || msg.sender == admin);\n        _;\n    }\n\n    modifier isVerified(address _beneficiary) {\n        require(whitelist[_beneficiary] == true);\n        require(kyclist[_beneficiary] == true);\n        _;\n    }\n\n    modifier claimable {\n        require(isFinalized == true || isClaimable == true);\n        require(isGoalReached());\n        _;\n    }\n\n    // getters\n    function isEnabled() public view returns (bool) {\n        return tokenSaleEnabled;\n    }\n\n    function isClosed() public view returns (bool) {\n        return now > stages[stages.length - 1].closing;\n    }\n\n    function isGoalReached() public view returns (bool) {\n        return getTotalTokenSold() >= softCap;\n    }\n\n    function getTotalTokenSold() public view returns (uint256) {\n        uint256 sold = 0;\n        for ( uint i = 0; i < stages.length; ++i ) {\n            sold = sold.add(stages[i].sold);\n        }\n\n        return sold;\n    }\n\n    function getOpeningTime() public view returns (uint256) {\n        return stages[currentStage].opening;\n    }\n\n    function getOpeningTimeByStage(uint _index) public view returns (uint256) {\n        require(_index < stages.length);\n        return stages[_index].opening;\n    }\n\n    function getClosingTime() public view returns (uint256) {\n        return stages[currentStage].closing;\n    }\n\n    function getClosingTimeByStage(uint _index) public view returns (uint256) {\n        require(_index < stages.length);\n        return stages[_index].closing;\n    }\n\n    function getCurrentCapacity() public view returns (uint256) {\n        return stages[currentStage].capacity;\n    }\n\n    function getCapacity(uint _index) public view returns (uint256) {\n        require(_index < stages.length);\n        return stages[_index].capacity;\n    }\n\n    function getCurrentSold() public view returns (uint256) {\n        return stages[currentStage].sold;\n    }\n\n    function getSold(uint _index) public view returns (uint256) {\n        require(_index < stages.length);\n        return stages[_index].sold;\n    }\n\n    function getCurrentRate() public view returns (uint256) {\n        return stages[currentStage].rate;\n    }\n\n    function getRate(uint _index) public view returns (uint256) {\n        require(_index < stages.length);\n        return stages[_index].rate;\n    }\n\n    function getRateWithoutBonus() public view returns (uint256) {\n        return stages[stages.length - 1].rate;\n    }\n\n    function getSales(address _beneficiary) public view returns (uint256) {\n        return sales[_beneficiary];\n    }\n    \n    // setter\n    function setSalePeriod(uint _index, uint256 _openingTime, uint256 _closingTime) public onlyOwner {\n        require(_openingTime > now);\n        require(_closingTime > _openingTime);\n\n        require(_index > currentStage);\n        require(_index < stages.length);\n\n        stages[_index].opening = _openingTime;        \n        stages[_index].closing = _closingTime;        \n    }\n\n    function setRate(uint _index, uint256 _rate) public onlyOwner {\n        require(_index > currentStage);\n        require(_index < stages.length);\n\n        require(_rate > 0);\n\n        stages[_index].rate = _rate;\n    }\n\n    function setCapacity(uint _index, uint256 _capacity) public onlyOwner {\n        require(_index > currentStage);\n        require(_index < stages.length);\n\n        require(_capacity > 0);\n        require(_capacity < hardCap);\n        require(stages[_index].minimumWei.mul(stages[_index].rate) < _capacity);\n        require(stages[_index].maximumWei.mul(stages[_index].rate) < _capacity);\n\n        stages[_index].capacity = _capacity;\n    }\n\n    \n     function setClaimable(bool _claimable) public onlyOwner {\n        if ( _claimable == true ) {\n            require(isGoalReached());\n        }\n\n        isClaimable = _claimable;\n    }\n\n    function addPrivateSale(uint256 _amount) public onlyOwner {\n        require(currentStage == 0);\n        require(_amount > 0);\n        require(_amount < stages[0].capacity.sub(stages[0].sold));\n\n        stages[0].sold = stages[0].sold.add(_amount);\n    }\n\n    function subPrivateSale(uint256 _amount) public onlyOwner {\n        require(currentStage == 0);\n        require(_amount > 0);\n        require(stages[0].sold > _amount);\n\n        stages[0].sold = stages[0].sold.sub(_amount);\n    }\n\n    // permission\n    function setAdmin(address _newAdmin) public onlyOwner {\n        require(_newAdmin != address(0x0));\n        require(_newAdmin != address(this));\n        require(_newAdmin != owner);\n\n        emit AdminTransferred(admin, _newAdmin);\n        admin = _newAdmin;\n    }\n\n    function transferOwnership(address newOwner) public onlyOwner {\n        require(newOwner != address(0));\n        require(newOwner != address(this));\n        emit OwnershipTransferred(owner, newOwner);\n        owner = newOwner;\n    }\n\n    // constructor\n    function ACATokenSale(\n        address _wallet, \n        address _admin,\n        uint256 _totalSupply,\n        uint256 _softCap,\n        uint256 _hardCap) public {\n        owner = msg.sender;\n\n        require(_admin != address(0));\n        require(_wallet != address(0));\n\n        require(_totalSupply > 0);\n        require(_softCap > 0);\n        require(_hardCap > _softCap);\n\n        admin = _admin;\n        wallet = _wallet;\n\n        totalSupply = _totalSupply;\n        softCap = _softCap;\n        hardCap = _hardCap;\n\n        emit TokenSaleCreated(wallet, _totalSupply);\n    }\n\n    // state related\n    function setupBounty(\n        uint256 _referralAmount,\n        uint256 _referralRateInviter,\n        uint256 _referralRateInvitee,\n        uint256 _bountyAmount,\n        uint256 _whitelistBonusClosingTime,\n        uint256 _whitelistBonusRate,\n        uint256 _whitelistBonusAmount\n    ) onlyOwner public {\n        \n        require(_referralAmount > 0);\n\n        require(_referralRateInviter > 0 && _referralRateInviter < 100);\n        require(_referralRateInvitee > 0 && _referralRateInvitee < 100);\n\n        require(_whitelistBonusClosingTime > now);\n        require(_whitelistBonusRate > 0);\n        require(_whitelistBonusAmount > _whitelistBonusRate);\n        require(_bountyAmount > 0);\n\n        referralAmount = _referralAmount;\n        referralRateInviter = _referralRateInviter;\n        referralRateInvitee = _referralRateInvitee;\n        bountyAmount = _bountyAmount;\n        whitelistBonusClosingTime = _whitelistBonusClosingTime;\n        whitelistBonusRate = _whitelistBonusRate;\n        whitelistBonusAmount = _whitelistBonusAmount;\n\n        emit BountySetupDone();\n    }\n    function addStage(\n        uint256 _openingTime, \n        uint256 _closingTime, \n        uint256 _capacity, \n        uint256 _minimumWei, \n        uint256 _maximumWei, \n        uint256 _rate) onlyOwner public {\n        require(tokenSaleEnabled == false);\n\n        // require(_openingTime > now);\n        require(_closingTime > _openingTime);\n\n        require(_capacity > 0);\n        require(_capacity < hardCap);\n\n        require(_minimumWei > 0);\n        require(_maximumWei >= _minimumWei);\n\n        require(_rate > 0);\n\n        require(_minimumWei.mul(_rate) < _capacity);\n        require(_maximumWei.mul(_rate) < _capacity);\n        if ( stages.length > 0 ) {\n            StageInfo memory prevStage = stages[stages.length - 1];\n            require(_openingTime > prevStage.closing);\n        }\n\n        stages.push(StageInfo(_openingTime, _closingTime, _capacity, _minimumWei, _maximumWei, _rate, 0));\n\n        emit StageAdded(_openingTime, _closingTime, _capacity, _minimumWei, _maximumWei, _rate);\n    }\n\n    function setToken(ACAToken _token) public onlyOwner {\n        token = _token;\n    }\n\n    function enableTokenSale() public onlyOwner returns (bool) {\n        require(stages.length > 0);\n\n        vault = new RefundVault(wallet);\n\n        tokenSaleEnabled = true;\n        emit TokenSaleEnabled();\n        return true;\n    }\n\n    function updateStage() public returns (uint256) {\n        require(tokenSaleEnabled == true);\n        require(currentStage < stages.length);\n        require(now >= stages[currentStage].opening);\n\n        uint256 remains = stages[currentStage].capacity.sub(stages[currentStage].sold);\n        if ( now > stages[currentStage].closing ) {\n            uint256 nextStage = currentStage.add(1);\n            if ( remains > 0 && nextStage < stages.length ) {\n                stages[nextStage].capacity = stages[nextStage].capacity.add(remains);\n                remains = stages[nextStage].capacity;\n            }\n\n            currentStage = nextStage;\n            emit StageUpdated(nextStage);\n        }\n\n        return remains;\n    }\n\n    function finalize() public onlyOwner {\n        require(isFinalized == false);\n        require(isClosed());\n\n        finalization();\n        emit Finalized();\n\n        isFinalized = true;\n    }\n\n    function finalization() internal {\n        if (isGoalReached()) {\n            vault.close();\n        } else {\n            vault.enableRefunds();\n        }\n\n    }\n\n    // transaction\n    function () public payable {\n        buyTokens(msg.sender);\n    }\n\n    function buyTokens(address _beneficiary) public payable {\n        uint256 weiAmount = msg.value;\n\n        _preValidatePurchase(_beneficiary, weiAmount);\n        // calculate token amount to be created\n        uint256 tokens = _getTokenAmount(weiAmount);\n\n        // update state\n        weiRaised = weiRaised.add(weiAmount);\n\n        _processPurchase(_beneficiary, tokens);\n        emit TokenPurchase(msg.sender, _beneficiary, weiAmount, tokens);\n\n        _forwardFunds();\n        _postValidatePurchase(_beneficiary, weiAmount);\n    }\n\n    function _getTokenAmount(uint256 _weiAmount) internal view returns (uint256) {\n        return _weiAmount.mul(getCurrentRate());\n    }\n\n    function _getTokenAmountWithoutBonus(uint256 _weiAmount) internal view returns (uint256) {\n        return _weiAmount.mul(getRateWithoutBonus());\n    }\n\n    function _preValidatePurchase(address _beneficiary, uint256 _weiAmount) internal isVerified(_beneficiary) {\n        require(_beneficiary != address(0));\n        require(_weiAmount != 0);\n\n        require(tokenSaleEnabled == true);\n\n        require(now >= stages[currentStage].opening);\n\n        // lazy execution\n        uint256 remains = updateStage();\n\n        require(currentStage < stages.length);\n        require(now >= stages[currentStage].opening && now <= stages[currentStage].closing);\n\n        require(_weiAmount >= stages[currentStage].minimumWei);\n        require(_weiAmount <= stages[currentStage].maximumWei);\n\n        uint256 amount = _getTokenAmount(_weiAmount);\n\n        require(remains >= amount);\n    }\n\n    function _postValidatePurchase(address _beneficiary, uint256 _weiAmount) internal {\n        if ( getCurrentSold() == getCurrentCapacity() ) {\n            currentStage = currentStage.add(1);\n            emit StageUpdated(currentStage);\n        }\n    }\n\n    function _deliverTokens(address _beneficiary, uint256 _tokenAmount) internal {\n        if ( isClaimable ) {\n            require(token.transferFrom(owner, _beneficiary, _tokenAmount));\n        }\n        else {\n            sales[_beneficiary] = sales[_beneficiary].add(_tokenAmount);\n        }\n    }\n\n    function _processPurchase(address _beneficiary, uint256 _tokenAmount) internal {\n\n        stages[currentStage].sold = stages[currentStage].sold.add(_tokenAmount);\n        _deliverTokens(_beneficiary, _tokenAmount);\n\n        uint256 weiAmount = msg.value;\n        address inviter = referrals[_beneficiary];\n        if ( inviter != address(0x0) && referralDone == false ) {\n            uint256 baseRate = _getTokenAmountWithoutBonus(weiAmount);\n            uint256 referralAmountInviter = baseRate.div(100).mul(referralRateInviter);\n            uint256 referralAmountInvitee = baseRate.div(100).mul(referralRateInvitee);\n            uint256 referralRemains = referralAmount.sub(referralSent);\n            if ( referralRemains == 0 ) {\n                referralDone = true;\n            }\n            else {\n                if ( referralAmountInviter >= referralRemains ) {\n                    referralAmountInviter = referralRemains;\n                    referralAmountInvitee = 0; // priority to inviter\n                    emit ReferralCapReached();\n                    referralDone = true;\n                }\n                if ( referralDone == false && referralAmountInviter >= referralRemains ) {\n                    referralAmountInvitee = referralRemains.sub(referralAmountInviter);\n                    emit ReferralCapReached();\n                    referralDone = true;\n                }\n\n                uint256 referralAmountTotal = referralAmountInviter.add(referralAmountInvitee);\n                referralSent = referralSent.add(referralAmountTotal);\n\n                if ( referralAmountInviter > 0 ) {\n                    _deliverTokens(inviter, referralAmountInviter);\n                    emit PurchaseReferral(inviter, referralAmountInviter);\n                }\n                if ( referralAmountInvitee > 0 ) {\n                    _deliverTokens(_beneficiary, referralAmountInvitee);\n                    emit PurchaseReferral(_beneficiary, referralAmountInvitee);\n                }\n            }\n        }\n    }\n\n    function _forwardFunds() internal {\n        vault.deposit.value(msg.value)(msg.sender);\n    }\n\n    // claim\n    function claimToken() public claimable isVerified(msg.sender) returns (bool) {\n        address beneficiary = msg.sender;\n        uint256 amount = sales[beneficiary];\n\n        emit TokenClaimed(beneficiary, amount);\n\n        sales[beneficiary] = 0;\n        return token.transferFrom(owner, beneficiary, amount);\n    }\n\n    function claimRefund() isVerified(msg.sender) public {\n        require(isFinalized == true);\n        require(!isGoalReached());\n\n        vault.refund(msg.sender);\n    }\n\n    function claimBountyToken() public claimable isVerified(msg.sender) returns (bool) {\n        address beneficiary = msg.sender;\n        uint256 amount = bounties[beneficiary];\n\n        emit TokenClaimed(beneficiary, amount);\n\n        bounties[beneficiary] = 0;\n        return token.transferFrom(owner, beneficiary, amount);\n    }\n\n    // bounty\n    function addBounty(address _address, uint256 _amount) public onlyAdmin isVerified(_address) returns (bool) {\n        require(bountyAmount.sub(bountySent) >= _amount);\n\n        bountySent = bountySent.add(_amount);\n        bounties[_address] = bounties[_address].add(_amount);\n        emit BountyUpdated(_address, true, _amount);\n    }\n    function delBounty(address _address, uint256 _amount) public onlyAdmin isVerified(_address) returns (bool) {\n        require(bounties[_address] >= _amount);\n        require(_amount <= bountySent);\n\n        bountySent = bountySent.sub(_amount);\n        bounties[_address] = bounties[_address].sub(_amount);\n        emit BountyUpdated(_address, false, _amount);\n    }\n    function getBountyAmount(address _address) public view returns (uint256) {\n        return bounties[_address];\n    }\n\n    // referral\n    function addReferral(address _inviter, address _invitee) public onlyAdmin isVerified(_inviter) isVerified(_invitee) returns (bool) {\n        referrals[_invitee] = _inviter;\n    }\n    function delReferral(address _inviter, address _invitee) public onlyAdmin isVerified(_inviter) isVerified(_invitee) returns (bool) {\n        delete referrals[_invitee];\n    }\n    function getReferral(address _address) public view returns (address) {\n        return referrals[_address];\n    }\n\n    // whitelist\n    function _deliverWhitelistBonus(address _beneficiary) internal {\n        if ( _beneficiary == address(0x0) ) {\n            return;\n        }\n\n        if ( whitelistBonus[_beneficiary] == true ) {\n            return;\n        }\n        \n        if (whitelistBonusAmount.sub(whitelistBonusSent) > whitelistBonusRate ) {\n            whitelistBonus[_beneficiary] = true;\n\n            whitelistBonusSent = whitelistBonusSent.add(whitelistBonusRate);\n            bounties[_beneficiary] = bounties[_beneficiary].add(whitelistBonusRate);\n            emit BountyUpdated(_beneficiary, true, whitelistBonusRate);\n        }\n    }\n    function isAccountWhitelisted(address _beneficiary) public view returns (bool) {\n        return whitelist[_beneficiary];\n    }\n\n    function addToWhitelist(address _beneficiary) external onlyAdmin {\n        whitelist[_beneficiary] = true;\n\n        if ( whitelistBonus[_beneficiary] == false && now < whitelistBonusClosingTime ) {\n            _deliverWhitelistBonus(_beneficiary);\n        }\n\n        emit WhitelistUpdated(_beneficiary, true);\n    }\n\n    function addManyToWhitelist(address[] _beneficiaries) external onlyAdmin {\n        uint256 i = 0;\n        if ( now < whitelistBonusClosingTime ) {\n            for (i = 0; i < _beneficiaries.length; i++) {\n                whitelist[_beneficiaries[i]] = true;\n                _deliverWhitelistBonus(_beneficiaries[i]);\n            }\n            return;\n        }\n\n        for (i = 0; i < _beneficiaries.length; i++) {\n            whitelist[_beneficiaries[i]] = true;\n        }\n\n        emit BulkWhitelistUpdated(_beneficiaries, true);\n    }\n\n    function removeFromWhitelist(address _beneficiary) external onlyAdmin {\n        whitelist[_beneficiary] = false;\n\n        emit WhitelistUpdated(_beneficiary, false);\n    }\n\n    // kyc\n    function isAccountVerified(address _beneficiary) public view returns (bool) {\n        return kyclist[_beneficiary];\n    }\n\n    function setAccountVerified(address _beneficiary) external onlyAdmin {\n        kyclist[_beneficiary] = true;\n\n        emit VerificationUpdated(_beneficiary, true);\n    }\n\n    function setManyAccountsVerified(address[] _beneficiaries) external onlyAdmin {\n        for (uint256 i = 0; i < _beneficiaries.length; i++) {\n            kyclist[_beneficiaries[i]] = true;\n        }\n\n        emit BulkVerificationUpdated(_beneficiaries, true);\n    }\n\n    function unverifyAccount(address _beneficiary) external onlyAdmin {\n        kyclist[_beneficiary] = false;\n\n        emit VerificationUpdated(_beneficiary, false);\n    }\n}\n",
  "sourcePath": "/home/abhi_21094/Projects/aca-audit/contracts/ACATokenSale.sol",
  "compiler": {
    "name": "solc",
    "version": "0.4.24+commit.e67f0147.Emscripten.clang"
  },
  "schemaVersion": "2.0.1",
  "updatedAt": "2019-02-12T07:27:28.597Z"
}