{
  "contractName": "PausableToken",
  "abi": [
    {
      "constant": false,
      "inputs": [
        {
          "name": "_spender",
          "type": "address"
        },
        {
          "name": "_value",
          "type": "uint256"
        }
      ],
      "name": "approve",
      "outputs": [
        {
          "name": "",
          "type": "bool"
        }
      ],
      "payable": false,
      "stateMutability": "nonpayable",
      "type": "function"
    },
    {
      "constant": true,
      "inputs": [],
      "name": "totalSupply",
      "outputs": [
        {
          "name": "",
          "type": "uint256"
        }
      ],
      "payable": false,
      "stateMutability": "view",
      "type": "function"
    },
    {
      "constant": false,
      "inputs": [
        {
          "name": "_from",
          "type": "address"
        },
        {
          "name": "_to",
          "type": "address"
        },
        {
          "name": "_value",
          "type": "uint256"
        }
      ],
      "name": "transferFrom",
      "outputs": [
        {
          "name": "",
          "type": "bool"
        }
      ],
      "payable": false,
      "stateMutability": "nonpayable",
      "type": "function"
    },
    {
      "constant": false,
      "inputs": [],
      "name": "unpause",
      "outputs": [],
      "payable": false,
      "stateMutability": "nonpayable",
      "type": "function"
    },
    {
      "constant": true,
      "inputs": [],
      "name": "paused",
      "outputs": [
        {
          "name": "",
          "type": "bool"
        }
      ],
      "payable": false,
      "stateMutability": "view",
      "type": "function"
    },
    {
      "constant": false,
      "inputs": [
        {
          "name": "_spender",
          "type": "address"
        },
        {
          "name": "_subtractedValue",
          "type": "uint256"
        }
      ],
      "name": "decreaseApproval",
      "outputs": [
        {
          "name": "",
          "type": "bool"
        }
      ],
      "payable": false,
      "stateMutability": "nonpayable",
      "type": "function"
    },
    {
      "constant": true,
      "inputs": [
        {
          "name": "_owner",
          "type": "address"
        }
      ],
      "name": "balanceOf",
      "outputs": [
        {
          "name": "balance",
          "type": "uint256"
        }
      ],
      "payable": false,
      "stateMutability": "view",
      "type": "function"
    },
    {
      "constant": false,
      "inputs": [],
      "name": "pause",
      "outputs": [],
      "payable": false,
      "stateMutability": "nonpayable",
      "type": "function"
    },
    {
      "constant": true,
      "inputs": [],
      "name": "owner",
      "outputs": [
        {
          "name": "",
          "type": "address"
        }
      ],
      "payable": false,
      "stateMutability": "view",
      "type": "function"
    },
    {
      "constant": false,
      "inputs": [
        {
          "name": "_spender",
          "type": "address"
        },
        {
          "name": "_addedValue",
          "type": "uint256"
        }
      ],
      "name": "increaseApproval",
      "outputs": [
        {
          "name": "",
          "type": "bool"
        }
      ],
      "payable": false,
      "stateMutability": "nonpayable",
      "type": "function"
    },
    {
      "constant": true,
      "inputs": [
        {
          "name": "_owner",
          "type": "address"
        },
        {
          "name": "_spender",
          "type": "address"
        }
      ],
      "name": "allowance",
      "outputs": [
        {
          "name": "",
          "type": "uint256"
        }
      ],
      "payable": false,
      "stateMutability": "view",
      "type": "function"
    },
    {
      "constant": false,
      "inputs": [
        {
          "name": "newOwner",
          "type": "address"
        }
      ],
      "name": "transferOwnership",
      "outputs": [],
      "payable": false,
      "stateMutability": "nonpayable",
      "type": "function"
    },
    {
      "anonymous": false,
      "inputs": [],
      "name": "Pause",
      "type": "event"
    },
    {
      "anonymous": false,
      "inputs": [],
      "name": "Unpause",
      "type": "event"
    },
    {
      "anonymous": false,
      "inputs": [
        {
          "indexed": true,
          "name": "previousOwner",
          "type": "address"
        },
        {
          "indexed": true,
          "name": "newOwner",
          "type": "address"
        }
      ],
      "name": "OwnershipTransferred",
      "type": "event"
    },
    {
      "anonymous": false,
      "inputs": [
        {
          "indexed": true,
          "name": "owner",
          "type": "address"
        },
        {
          "indexed": true,
          "name": "spender",
          "type": "address"
        },
        {
          "indexed": false,
          "name": "value",
          "type": "uint256"
        }
      ],
      "name": "Approval",
      "type": "event"
    },
    {
      "anonymous": false,
      "inputs": [
        {
          "indexed": true,
          "name": "from",
          "type": "address"
        },
        {
          "indexed": true,
          "name": "to",
          "type": "address"
        },
        {
          "indexed": false,
          "name": "value",
          "type": "uint256"
        }
      ],
      "name": "Transfer",
      "type": "event"
    },
    {
      "constant": false,
      "inputs": [
        {
          "name": "_to",
          "type": "address"
        },
        {
          "name": "_value",
          "type": "uint256"
        }
      ],
      "name": "transfer",
      "outputs": [
        {
          "name": "",
          "type": "bool"
        }
      ],
      "payable": false,
      "stateMutability": "nonpayable",
      "type": "function"
    }
  ],
  "bytecode": "0x608060405260038054600160a860020a0319163317905561094d806100256000396000f3006080604052600436106100c45763ffffffff7c0100000000000000000000000000000000000000000000000000000000600035041663095ea7b381146100c957806318160ddd1461010157806323b872dd146101285780633f4ba83a146101525780635c975abb14610169578063661884631461017e57806370a08231146101a25780638456cb59146101c35780638da5cb5b146101d8578063a9059cbb14610209578063d73dd6231461022d578063dd62ed3e14610251578063f2fde38b14610278575b600080fd5b3480156100d557600080fd5b506100ed600160a060020a0360043516602435610299565b604080519115158252519081900360200190f35b34801561010d57600080fd5b506101166102ff565b60408051918252519081900360200190f35b34801561013457600080fd5b506100ed600160a060020a0360043581169060243516604435610305565b34801561015e57600080fd5b5061016761047c565b005b34801561017557600080fd5b506100ed6104f4565b34801561018a57600080fd5b506100ed600160a060020a0360043516602435610504565b3480156101ae57600080fd5b50610116600160a060020a03600435166105f4565b3480156101cf57600080fd5b5061016761060f565b3480156101e457600080fd5b506101ed61068c565b60408051600160a060020a039092168252519081900360200190f35b34801561021557600080fd5b506100ed600160a060020a036004351660243561069b565b34801561023957600080fd5b506100ed600160a060020a03600435166024356106c6565b34801561025d57600080fd5b50610116600160a060020a036004358116906024351661075f565b34801561028457600080fd5b50610167600160a060020a036004351661078a565b336000818152600260209081526040808320600160a060020a038716808552908352818420869055815186815291519394909390927f8c5be1e5ebec7d5bd14f71427d1e84f3dd0314c0f7b2291e5b200ac8c7c3b925928290030190a350600192915050565b60015490565b6000600160a060020a038316151561031c57600080fd5b600160a060020a03841660009081526020819052604090205482111561034157600080fd5b600160a060020a038416600090815260026020908152604080832033845290915290205482111561037157600080fd5b600160a060020a03841660009081526020819052604090205461039a908363ffffffff61081f16565b600160a060020a0380861660009081526020819052604080822093909355908516815220546103cf908363ffffffff61083116565b600160a060020a03808516600090815260208181526040808320949094559187168152600282528281203382529091522054610411908363ffffffff61081f16565b600160a060020a03808616600081815260026020908152604080832033845282529182902094909455805186815290519287169391927fddf252ad1be2c89b69c2b068fc378daa952ba7f163c4a11628f55a4df523b3ef929181900390910190a35060019392505050565b600354600160a060020a0316331461049357600080fd5b60035460a060020a900460ff1615156104ab57600080fd5b6003805474ff0000000000000000000000000000000000000000191690556040517f7805862f689e2f13df9f062ff482ad3ad112aca9e0847911ed832e158c525b3390600090a1565b60035460a060020a900460ff1681565b336000908152600260209081526040808320600160a060020a03861684529091528120548083111561055957336000908152600260209081526040808320600160a060020a038816845290915281205561058e565b610569818463ffffffff61081f16565b336000908152600260209081526040808320600160a060020a03891684529091529020555b336000818152600260209081526040808320600160a060020a0389168085529083529281902054815190815290519293927f8c5be1e5ebec7d5bd14f71427d1e84f3dd0314c0f7b2291e5b200ac8c7c3b925929181900390910190a35060019392505050565b600160a060020a031660009081526020819052604090205490565b600354600160a060020a0316331461062657600080fd5b60035460a060020a900460ff161561063d57600080fd5b6003805474ff0000000000000000000000000000000000000000191660a060020a1790556040517f6985a02210a168e66602d3235cb6db0e70f92b3ba4d376a33c0f3d9434bff62590600090a1565b600354600160a060020a031681565b60035460009060a060020a900460ff16156106b557600080fd5b6106bf8383610840565b9392505050565b336000908152600260209081526040808320600160a060020a03861684529091528120546106fa908363ffffffff61083116565b336000818152600260209081526040808320600160a060020a0389168085529083529281902085905580519485525191937f8c5be1e5ebec7d5bd14f71427d1e84f3dd0314c0f7b2291e5b200ac8c7c3b925929081900390910190a350600192915050565b600160a060020a03918216600090815260026020908152604080832093909416825291909152205490565b600354600160a060020a031633146107a157600080fd5b600160a060020a03811615156107b657600080fd5b600354604051600160a060020a038084169216907f8be0079c531659141344cd1fd0a4f28419497f9722a3daafe3b4186f6b6457e090600090a36003805473ffffffffffffffffffffffffffffffffffffffff1916600160a060020a0392909216919091179055565b60008282111561082b57fe5b50900390565b6000828201838110156106bf57fe5b6000600160a060020a038316151561085757600080fd5b3360009081526020819052604090205482111561087357600080fd5b33600090815260208190526040902054610893908363ffffffff61081f16565b3360009081526020819052604080822092909255600160a060020a038516815220546108c5908363ffffffff61083116565b600160a060020a038416600081815260208181526040918290209390935580518581529051919233927fddf252ad1be2c89b69c2b068fc378daa952ba7f163c4a11628f55a4df523b3ef9281900390910190a3506001929150505600a165627a7a7230582037a07a53ded8ee59d9e136baf0d65aca43184473f8fcbaf24189315641533c440029",
  "source": "pragma solidity ^0.4.19;\n\nimport \"./StandardToken.sol\";\nimport \"./Pausable.sol\";\n\n\n/**\n * @title Pausable token\n * @dev StandardToken modified with pausable transfers.\n **/\ncontract PausableToken is StandardToken, Pausable {\n\n  function transfer(address _to, uint256 _value) public whenNotPaused returns (bool) {\n    return super.transfer(_to, _value);\n  }\n}",
  "sourcePath": "/home/abhi_21094/Projects/aca-audit/contracts/PausableToken.sol",
  "compiler": {
    "name": "solc",
    "version": "0.4.24+commit.e67f0147.Emscripten.clang"
  },
  "schemaVersion": "2.0.1",
  "updatedAt": "2019-02-12T07:27:28.669Z"
}